:060000000C9447000C9473
:1000060000000C9400000C9400000C9400000C946A
:1000160000000C9400000C9400000C9400000C945A
:1000260000000C9400000C9400000C9400000C944A
:1000360000000C9400000C9400000C94FE000C943C
:1000460000000C949C000C9400000C94E5000C94A9
:1000560000000C9400000C9400000C9400000C941A
:1000660000000C9400000C9400000C9400000C940A
:1000760000000C947A000C9400000C94C4000C94BC
:1000860000000C9400000000F894EE27ECBBF1E0B1
:10009600F5BFE5BFE0936C00EBBFF8E1F1BDE1BD54
:1000A6008DE0A2E0BB27ED938A95E9F780E090E129
:1000B600A0E0B1E0ED930197E9F7ECE8F0E0859177
:1000C6009591009761F0A591B59105901590BF01A6
:1000D600F00105900D920197E1F7FB01F0CFEFEFEC
:1000E600EDBFE0E1EEBFC0E0D5E00C94E2020E9475
:1000F600770600919B0010919C0020FC02C022FE16
:1001060001C016C0662019F4689421F84424E8EC6E
:100116006E2EA42DB0E0A050BB4F1C934394E8E193
:100126004E1608F044245394E8E15E1608F0552470
:100136001FC00E9477060BB11CB123FC02C025FE2E
:1001460001C016C0992019F4689424F87724E8ECC5
:100156009E2EA72DB0E0A85EBA4F1C937394E8E1DB
:100166007E1608F077248394E8E18E1608F088243A
:1001760009911991E991EFBFE991B991A991F99086
:1001860018958A939A93EA93FA93EFB7EA9320FE27
:1001960012C088EC90E00197F1F7A394E0E4AE1664
:1001A60008F0AA24BA1419F00E94800604C0E89444
:1001B60020F821F89498E991EFBFF991E991999186
:1001C60089911895EA93FA93EFB7EA9323FE0EC046
:1001D600C394E0E4CE1608F0CC24DC1419F00E9497
:1001E600880604C0E89423F824F81A98E991EFBF2A
:1001F600F991E9911895FA92EA93EFB7EA93E7E055
:10020600E2BFA895992029F424FE02C0689425F837
:1002160001C09A94662029F421FE02C0689422F84F
:1002260001C06A94E991EFBFE991F9901895E881C8
:10023600E03081F40E948F06D898D998DB98DC9834
:10024600DD98DE98DF98AE98AF98AC98AB9AAA9AEC
:10025600A99A89C1E13081F40E948F06D898D9986D
:10026600DB98DC98DD98DE98DF98AE98AF98AC986E
:10027600AB9AAA9AA99A77C1E23081F40E948F06B6
:10028600D898D998DB98DC98DD98DE98DF98AE98F8
:10029600AF98AC98AB9AAA9AA99865C1E33081F455
:1002A6000E948F06D898D998DB98DC98DD98DE985E
:1002B600DF98AE98AF98AC98AB9AAA98A99853C114
:1002C600E43081F40E948F06D898D998DB98DC98A0
:1002D600DD98DE98DF98AE98AF98AC9AAB98AA985E
:1002E600A99841C1E53081F40E948F06D898D99823
:1002F600DB98DC98DD98DE98DF98AE98AF9AAC9ADA
:10030600AB98AA98A9982FC1E63081F40E948F066F
:10031600D898D998DB98DC98DD98DE98DF98AE9A65
:10032600AF9AAC9AAB98AA98A9981DC1E73081F408
:100336000E948F06D898D998DB98DC98DD98DE98CD
:10034600DF9AAE9AAF9AAC9AAB98AA98A9980BC1C5
:10035600E83081F40E948F06D898D998DB98DC980B
:10036600DD98DE9ADF9AAE9AAF9AAC9AAB98AA98C5
:10037600A998F9C0E93081F40E948F06D898D998D7
:10038600DB98DC98DD9ADE9ADF9AAE9AAF9AAC9A41
:10039600AB98AA98A998E7C0EA3081F40E948F0624
:1003A600D898D998DB98DC9ADD9ADE9ADF9AAE9ACD
:1003B600AF9AAC9AAB98AA98A998D5C0EB3081F4BD
:1003C6000E948F06D898D998DB9ADC9ADD9ADE9A35
:1003D600DF9AAE9AAF9AAC9AAB98AA98A998C3C07E
:1003E600EC3081F40E948F06D898D99ADB9ADC9A71
:1003F600DD9ADE9ADF9AAE9AAF9AAC9AAB98AA9833
:10040600A998B1C0ED3081F40E948F06D89AD99A86
:10041600DB9ADC9ADD9ADE9ADF9AAE9AAF9AAC9AAC
:10042600AB98AA98A9989FC0EE3099F40E94B3069B
:10043600EF7D0E94CF06D89AD99ADB9ADC9ADD9A8C
:10044600DE9ADF9AAE9AAF9AAC9AAB98AA98A99818
:100456008AC0EF3099F40E94B306E0620E94CF068C
:10046600D89AD99ADB9ADC9ADD9ADE9ADF9AAE9A06
:10047600AF9AAC9AAB98AA98A99875C0E03199F44E
:100486000E94D706ED7F0E94E906D89AD99ADB9A90
:10049600DC9ADD9ADE9ADF9AAE9AAF9AAC9AAB985E
:1004A600AA98A99860C0E13199F40E94D706E26043
:1004B6000E94E906D89AD99ADB9ADC9ADD9ADE9AE6
:1004C600DF9AAE9AAF9AAC9AAB98AA98A9984BC005
:1004D600E231A1F40E94F4060E94FC060E94020783
:1004E600D89AD99ADB9ADC9ADD9ADE9ADF9AAE9A86
:1004F600AF9AAC9AAB98AA98A99835C0E33191F413
:100506000E94F4060E940907D89AD99ADB9ADC9AC7
:10051600DD9ADE9ADF9AAE9AAF9AAC9AAB98AA9811
:10052600A99821C0E43181F40E940F07D89AD99A7C
:10053600DB9ADC9ADD9ADE9ADF9AAE9AAF9AAC9A8B
:10054600AB98AA98A9980FC00E940F07D89AD99A73
:10055600DB9ADC9ADD9ADE9ADF9AAE9AAF9AAC9A6B
:10056600AB98AA98A998219608950A93E7B3E763EA
:10057600E7BBE8B3E763E8BBC098E981FA810E946C
:10058600E807E983FA8300E00C3098F4A981BA8180
:10059600A030E0E8BE0710F0C29A01C0C298C19828
:1005A600C19AE981FA81EE0FFF1FE983FA830F5F93
:1005B600EBCFC09AC498C49A0881239608952497CD
:1005C60030E0E0E0EBBBEFEFEABBE0E0E8BBECE0FD
:1005D600E7BBE0E2E5BBEFEDE4BBE0E8E2BBE8E168
:1005E600E1BBE0E0E3B9E6E0E2B9E0E0E093620017
:1005F600EFEFE0936100E0E0E0936500E0936400D4
:10060600EBB9E8EDEAB9E6E0E0939500E0E0E093C7
:100616009000E3E3E9B9E0E0E0939B00E8EDE093C6
:100626009A00E6E0E0939D00E0E0E0939800E3E3C3
:10063600E0939900E0E8E8B9E0E0E0BDE0BFE2E081
:10064600E3BFE0E0E2BFE1BFE1E0E7BFE0E0E09367
:100656007D00E89422F821F80E94170725F824F86F
:10066600772488247894E89422F821F844245524A1
:10067600E0E0E0930005E0930105E0930205E093D6
:100686000305E0930405E0930505E0930605E09372
:100696000705E0930805E09309050E941B07E4E0BF
:1006A6000E942507E6E80E9425070E942C07E6B768
:1006B600E2FFFDCF0E943907A89542D1E130B1F59E
:1006C600E0E0E0932F06E0933006E7E0E51561F4FD
:1006D600B0910305A0E0E0910405F0E0EA0FFB1FEE
:1006E600E0932F06F0933006A0912F06B0913006C6
:1006F600E0E0F0E0EA1BFB0BE0932F06F0933006F8
:10070600A8EBBEE185E89DE30E94F6070E948E08ED
:100716000E941309A0E0B0E088E291E40E94C508B7
:100726000E945B08E0932F06F0933006E0912F06B7
:10073600F0913006A0E0B0E080E09FE30E94F6076B
:100746000E948E080E9413097F936F93FF93EF9385
:10075600E881F9816A817B81A0E0B0E080E09FE3D7
:100766000E941309AF91BF918F919F910E94C50876
:10077600A0E0B0E080E09FE30E94C508E883F9832B
:100786006A837B83A881B9818A819B81E0E0F0E05E
:1007960060EA71E40E94450909F010F40C94D7034D
:1007A600E883F9836A837B83A881B9818A819B81E7
:1007B600E0E0F0E060E87FE30E94450920F4E8838A
:1007C600F9836A837B83A0912F06B0913006E4E615
:1007D600F0E00E940308EF51FF4F1E2F2F2F2A93A0
:1007E6001A930E94B802E881F9816A817B810E948E
:1007F6005B08EA930E941A0127FCDA9AE0E0E31705
:1008060028F4E0916200E061E0936200ECE2F1E03E
:10081600FA93EA930E94CF07AB98AA98A9980E94E8
:10082600F4060E94FC06EF7BE0936200DA98323011
:1008360028F4E0916200EF7EE09362009D9902C089
:1008460026FE01C036C0689426F8E0E0E093C205B3
:1008560027FC02C030FE01C014C0DA9A689427F85B
:100866000E941B07E6E00E942507E1E80E94250793
:100876000E942C07E6B7E2FFFDCF0E943907A89534
:1008860018C027FE02C030FE01C013C0DA98689473
:1008960030F80E941B07E6E00E942507E2E80E9466
:1008A60025070E942C07E6B7E2FFFDCF0E94390715
:1008B600A8959D9B15C0A091C205AF5FA093C205E8
:1008C600E1E0EA1768F4E89426F8E0E0E093C20570
:1008D60027FE02C030FC01C003C0E89427F830F8B8
:1008E60025FE2BC04CD0E130F9F4EFEFFFEFE0939B
:1008F600DD05F093DE05E0911905E43041F4E8E00A
:10090600E81511F454D102C00E943E070DC0E6302E
:1009160041F4E8E0E81511F46ED102C00E943E07EA
:1009260003C0E2E0EA9309D1E89422F821F80E9494
:10093600170725F824F87724882495CE2496FFCF28
:100946000A9301E00E944207E42D0E944C0730F40E
:100956000E94510734D00E945907F6CFE42D0E9419
:100966005F070E94690709F000E0E42DE1500E944C
:100976005F070E946F0709F000E0E02F1EC00A9390
:1009860001E00E947407E72D0E944C0730F40E9494
:100996007E073FD00E945907F6CFE72D0E948607B3
:1009A6000E94690709F000E0E72DE1500E948607E2
:1009B6000E946F0709F000E0E02F099108950A935D
:1009C600E091DB05F091DC050E949007E093DB05E2
:1009D600F093DC0500E00830D8F4E091DB05E17027
:1009E60079F00E949507E093DB05F093DC05A09172
:1009F600DB05B091DC05E1E0F0EAEA27FB2702C05F
:100A06000E949507E093DB05F093DC050F5FE3CFCB
:100A160029C00A93E091DD05F091DE050E9490075A
:100A2600E093DD05F093DE0500E00830D8F4E091B0
:100A3600DD05E17079F00E94A107E093DD05F093F2
:100A4600DE05A091DD05B091DE05E1E0F0EAEA27DA
:100A5600FB2702C00E94A107E093DD05F093DE05A7
:100A66000F5FE3CF088122960895E881EA930E94FA
:100A7600E204E881EA9302D021960895F894E3947B
:100A8600EB2DF0E0E05DFA4FA881A083B394E0E49B
:100A9600EB1509F4BB24789407C0E881EA930E9419
:100AA6000C05E881EA9302D021960895F894E09126
:100AB600BF05EF5FE093BF05ED2DF0E0E059FA4F7B
:100AC600A881A083D394E0E4ED1509F4DD2478949D
:100AD60045C0E091DB05EA930E944105E091DB0504
:100AE600F091DC050E94F107EA930E944105949A71
:100AF6000E948006689420F8EFEFFFEFE093DB0595
:100B0600F093DC050895E091DD05EA930E9459050E
:100B1600E091DD05F091DE050E94F107EA930E945F
:100B260059051A9A0E948806689423F8EFEFFFEF9A
:100B3600E093DD05F093DE050895E0911805EA934C
:100B46000E945005E0911905E068EA930E9450055D
:100B5600E881EA930E9450050E9486052196089531
:100B6600A881B981A130E0E0BE0759F4EA81FB8192
:100B7600662777270E948E08A4E0B0E00E94160838
:100B860013C0A881B981A230E0E0BE0759F4EA811A
:100B9600FB81662777270E948E08A0E0B0E00E94BE
:100BA600160802C0E0E001C0E1E0249608950E9424
:100BB6004207E82D0E94AD0738F40E947E070E9486
:100BC60038050E945907F5CF0E94B207E6B7E2FF43
:100BD600FDCF0E9439070E947407E52D0E94AD07DC
:100BE60038F40E9451070E9450050E945907F5CF1C
:100BF6000E94860508950E946509EAE1F5E02081D4
:100C06003327E22FF32FFE2FE0E0DF01E0911B05F3
:100C1600F0E0EA0FFB1F2E2F3F2FECE1F5E00081FD
:100C26001127E02FF12FFE2FE0E0DF01E0911D05F7
:100C3600F0E0EA0FFB1F0E2F1F2F1A930A933A9329
:100C46002A930E94B305E13071F440E050E046304B
:100C5600E0E05E0738F40E94C1070E9450054F5F2E
:100C66005F4FF5CF31C0EFEFFFEFE093DB05F09379
:100C7600DC0540E050E0E82D0E94C80738F40E94E9
:100C8600C1070E9438054F5F5F4FF5CF0E94B2073C
:100C9600E6B7E2FFFDCF0E943907EFEFFFEFE093E3
:100CA600DD05F093DE0540E050E0E52D0E94C80723
:100CB60058F4A0E0B5E0A40FB51FEC91EA930E94AA
:100CC60050054F5F5F4FF1CF0E9486050E946C0969
:100CD600269608955F9BFECFACB108955D9BFECF2F
:100CE600A881ACB921960895FA92AA93BA93EA9389
:100CF600EFB7EA931A930A930895EA2DF0E0E05DC0
:100D0600FA4FE081E0939C000895EC2DF0E0E05965
:100D1600FA4FE081ECB90895E0916200EB7FE09331
:100D26006200E0916200EE7FE0936200E091620073
:100D3600EF7BE0936200E0916200ED7FE09362005A
:100D4600E0916200E77FE0936200E0916200EF7D50
:100D5600E0936200E0916200EF77E093620008950D
:100D6600E0916200EB7FE0936200E0916200EE7F2B
:100D7600E0936200E0916200EF7BE0936200E09115
:100D86006200ED7FE0936200E0916200E77FE0930E
:100D96006200E09162000895E0936200E0916200D3
:100DA600E068E09362000895E0916200EB7FE093D3
:100DB6006200E0916200EE7FE0936200E0916200E3
:100DC600EF7BE0936200E09162000895E093620099
:100DD600E0916200E860E0936200E0916200E06208
:100DE600DBCFE0916200EB7FE0936200E09162006E
:100DF6000895EE7FE0936200E09162000895E0645A
:100E0600E0936200E0916200E260E0CFE160E0938F
:100E16006200E0916200F3CFE0916200E460E0934B
:100E26006200E0916200F2CF44245524E8940895CC
:100E3600EFEFFFEFE093DB05F093DC05E1E0EA93EB
:100E46000C943805EA930E943805E0E0EA930C9486
:100E56003805E1E0EA930E9438050E946C05E0E05F
:100E6600F0E0FDBDECBDE3E0EEBD0895E0E0EEBDD3
:100E7600E6B7E6BF0895E1E0EA930C94A005EFEF2C
:100E8600FFEFE093DB05F093DC05E0E0E093C105BE
:100E96000895E150A091C105AE170895E091C105EE
:100EA600F0E0E050FB4FE081EA930895E091C10540
:100EB600EF5FE093C1050895F0E0E050FB4FE0815D
:100EC600AE2FE091DB05F091DC0508950E94F10755
:100ED600B0E0EA17FB070895F070B0E0EA17FB07E9
:100EE6000895EFEFFFEFE093DD05F093DE05E0E018
:100EF600E093C1050895E091C105F0E0E85EFA4F80
:100F0600E081EA930895F0E0E85EFA4FE081AE2FC3
:100F1600E091DD05F091DE050895A981B0E0EA27AC
:100F2600FB270895E091DB05F091DC05F595E79543
:100F3600E093DB05F093DC05FF770895E091DD058E
:100F4600F091DE05F595E795E093DD05F093DE0576
:100F5600FF770895E250A091C105AE1708950E944B
:100F66006C05EFEFFFEFE093DB05F093DC05E0E0C7
:100F7600F0E0FDBDECBDE3E0EEBD0895A8E1B5E00F
:100F8600A40FB51FEC91EA930895E250A42FB52F54
:100F9600F0E0AE17BF070895E991F991309639F060
:100FA60080ED97E00197F1F7A8953197C9F7089575
:100FB600E095F09531960895E095F09560957095D9
:100FC600EF5FFF4F6F4F7F4F0895EE0FFF1FEE0F3E
:100FD600FF1FEE0FFF1FEE0FFF1F0895EF2FFF27D6
:100FE600E7FDFFEF08956F2F660F660B762F0895C6
:100FF600FA9FF02DEB9FF00DEA9FE02DF10D08957D
:1010060004D0F6DF0EF4D4DF0895E894F7FF02C0AB
:10101600CFDF6894B7FF06C0A095B095119600F88B
:10102600039400FA08950AD012960E2E1F2EE62F6C
:10103600F72F04D0E02DF12D1297089507D01196C1
:10104600EF93EF2F03D0EF9111970895E199FECF1B
:101056009FB7F894AEBBBFBBE09A8DB3E81719F003
:10106600EDBBE29AE19A9FBF089550E8572711F425
:101076005F93CAC05F3F31F0660F000C57956795C6
:10108600752F08955F9300200AF0C4C0B7C050E8DA
:10109600192E1522880F991F9527550F879550E809
:1010A600072E0522660F771F7527550F679508953A
:1010B6005F93F5DF703818F07F3F08F4A5C056E15E
:1010C600571B92F45195583028F0EFEFFFEF6FEF72
:1010D6007FE71AC077275523B9F0EE0FFF1F661F6B
:1010E600771F5A95D1F710C07727583028F0EF2F81
:1010F600F62F672F5850F9CF552331F0769567951F
:10110600F795E7955A95D1F700200AF455DF5F91D8
:101116000895689401C0E894309760407040B1F03B
:10112600002426F0772312F4009446DF172E7EE182
:10113600112032F07A95EE0FFF1F661F111CF9CFB2
:10114600EF2FF62F612D5F9390DF5F9108955E2F4D
:10115600EA2FA52F5F2FFB2FB52F562F682F852F30
:10116600572F792F952F502D012C152E0895EA0F04
:10117600FB1F681F0895E095F0956095EF5FFF4FA0
:101186006F4F08955F9383DF903839F1703821F1FE
:10119600572F591B13F112F4DADFFACF583118F032
:1011A600AA27BB278827583028F0AB2FB82F8827C7
:1011B6005850F9CF552329F08695B795A7955A9596
:1011C600D9F7502D512562F0D2DF38F46795F7959F
:1011D600E795739513F41EC0BADF47DF5F91089554
:1011E600EA1BFB0B680B81F010F40094C4DF662346
:1011F600A2F3EE0FFF1F661F7A95CBF7EFEFFFEF17
:101206006FE77FEF5F910895EE27FF276627772721
:101216005F910895EFEFFFEF6FE77FE75F91089526
:101226005F9335DF703881F3903871F301240894A9
:10123600791F23F44CF300200AF3ECCF3F934F932E
:10124600112433274427552798E1330F441F551F90
:10125600EE1FFF1F661F30F43A0F4B1F581FE11D8C
:10126600F11D611D9A9589F74F913F9166232AF0EA
:10127600550FEE1FFF1F661F02C07395E3F2F5DEE2
:101286005F91089599239AF0772342F0971748F0D3
:1012960029F4AE17BF07860720F031F0989488949A
:1012A6000895989408940895189488940895772337
:1012B600C2F7971798F3A9F7EA17FB07680788F3A9
:1012C60099F3ECCF5A934A933A932A931A930A9333
:1012D60008955D814C813B812A8119810881089599
:00000001FF
