:060000000C9440020C9478
:1000060000000C9400000C9400000C9400000C946A
:1000160000000C9400000C9400000C9400000C945A
:1000260000000C947C0B0C9400000C9400000C94C3
:1000360000000C9400000C9400000C94BC060C9478
:1000460000000C94B6020C9400000C9482060C94EA
:1000560000000C9400000C9400000C9400000C941A
:1000660000000C9400000C9400000C9400000C940A
:10007600590B0C9472020C9400000C944D060C94CF
:1000860000000C9400001027E80364000A00010039
:100096000010000110000100010001001E00010017
:1000A600030001000000C0C1C1810140C30103C0BB
:1000B6000280C241C60106C00780C7410500C5C10E
:1000C600C4810440CC010CC00D80CD410F00CFC1CE
:1000D600CE810E400A00CAC1CB810B40C90109C0BE
:1000E6000880C841D80118C01980D9411B00DBC15E
:1000F600DA811A401E00DEC1DF811F40DD011DC00E
:100106001C80DC411400D4C1D5811540D70117C02D
:100116001680D641D20112C01380D3411100D1C13D
:10012600D0811040F00130C03180F1413300F3C17D
:10013600F28132403600F6C1F7813740F50135C00D
:100146003480F4413C00FCC1FD813D40FF013FC0CD
:100156003E80FE41FA013AC03B80FB413900F9C1BD
:10016600F88138402800E8C1E9812940EB012BC01D
:100176002A80EA41EE012EC02F80EF412D00EDC10D
:10018600EC812C40E40124C02580E5412700E7C12D
:10019600E68126402200E2C1E3812340E10121C03D
:1001A6002080E041A00160C06180A1416300A3C13D
:1001B600A28162406600A6C1A7816740A50165C00D
:1001C6006480A4416C00ACC1AD816D40AF016FC0CD
:1001D6006E80AE41AA016AC06B80AB416900A9C1BD
:1001E600A88168407800B8C1B9817940BB017BC05D
:1001F6007A80BA41BE017EC07F80BF417D00BDC10D
:10020600BC817C40B40174C07580B5417700B7C12C
:10021600B68176407200B2C1B3817340B10171C03C
:100226007080B041500090C191815140930153C0FC
:1002360052809241960156C057809741550095C10C
:10024600948154409C015CC05D809D415F009FC1CC
:100256009E815E405A009AC19B815B40990159C0BC
:1002660058809841880148C0498089414B008BC11C
:100276008A814A404E008EC18F814F408D014DC00C
:100286004C808C41440084C185814540870147C02C
:1002960046808641820142C043808341410081C13C
:1002A60080814040000000000D0A20696620796FB9
:1002B600752077616E7420746F20736574204D6F9E
:1002C60064627573206164647265737320706C6513
:1002D600617365207479706520276127206C6574C9
:1002E600746572200D0A000D0A20696620796F7503
:1002F6002077616E7420746F207365742041766573
:10030600726167696E67206F75742074696D652008
:1003160076616C756520706C6561736520747970A3
:100326006520277627206C6574746572200D0A0097
:100336000D0A20696620796F752077616E742074C6
:100346006F2073657420746865206E756D626572C2
:10035600206F6620776F726B696E672066726571B3
:1003660075656E6369657320706C6561736520746D
:1003760079706520276627206C6574746572200D78
:100386000A000D0A20696620796F752077616E7400
:1003960020746F2073657420746865206D696E69BA
:1003A6006D616C20534B5A2076616C756520696EC1
:1003B6002041444320756E69747320706C656173C7
:1003C60065207479706520276D27206C65747465C7
:1003D60072200D0A000D0A20696620796F75207754
:1003E600616E7420746F206F76657276696577200A
:1003F6007468652063757272656E7420636F6E66CD
:10040600696775726174696F6E2020706C656173BF
:1004160065207479706520276F27206C6574746574
:1004260072200D0A00726D733D25642C204176659D
:1004360072534B5A7072636E25640D0A00726D73A7
:100446003D25640D0A0001002D4E414E00000100BD
:100456008905A00001008B05A20001009705A400F4
:100466000100A705A6000002B305AA0004000400C7
:10047600AA0201003B094C040000F894EE27ECBBED
:10048600F1E0F5BFE5BFE0936C00F8E1F1BDE1BD39
:100496008DE0A2E0BB27ED938A95E9F780E090E135
:1004A600A0E0B1E0ED930197E9F7E4E5F4E085918A
:1004B6009591009761F0A591B59105901590BF01B2
:1004C600F00105900D920197E1F7FB01F0CFEFEFF8
:1004D600EDBFE0E1EEBFC0E0D5E00C94190FAA93A2
:1004E600EA93FA93EFB7EA931A930A9310919B0053
:1004F60000919C00A0E020FCA1E0A03029F4A0E03F
:1005060022FCA1E0A03009F026C0E0918F05E03082
:1005160029F4689421F8E0E0E0938D05E8ECE09397
:100526008F05E0918D05F0E0EA5FFA4F0083A09118
:100536008D05AF5FA0938D05A03818F0E0E0E0933D
:100546008D05A0918E05AF5FA0938E05A03818F09B
:10055600E0E0E0938E0509911991E991EFBFF991D9
:10056600E991A99118950A921A92FA926A937A9346
:100576008A939A93AA93BA93EA93FA93EFB7EA9374
:100586001A930A93F8941BB10CB17894E09135084C
:10059600E03019F4E0E0E0938605E0E9EAB933FCDF
:1005A6002DC0E0913608E03039F4689434F8E0E084
:1005B600E0933408E0938605EEE0E0933608E09198
:1005C6008605EF5FE0938605E0913408F0E0ED5490
:1005D600F84F0083A0913408AF5FA0933408A03889
:1005E60018F0E0E0E0933408A0913508AF5FA093DF
:1005F6003508A03818F0E0E0E0933508E89424F8D0
:10060600689423F800933308E0910405F0910505FA
:100616000E942819E295E07FEE0FAE2FE091AD051E
:10062600F091AE050E94E418EA2BDF01E0E025FC1C
:10063600E1E0F0E00E94E618EA2BFB2B0F01E0E078
:1006460025FCE1E0F0E0A091AD05B091AE05EA2B06
:10065600FB2B0E94E8180E2A1F2AE091AB05F091A9
:10066600AC050E942819EE0FA091A505B091A6052C
:10067600F0E0EA23FB230E2A1F2AE091AB05F09156
:10068600AC050E942819F0E0EA23FB23A091AB05F4
:10069600B091AC05EA2BFB2BD001EA2BE093920537
:1006A600A0918605A83011F00C942706E091340835
:1006B600F0E0BF013897ED54F84FE081AE2FE0919E
:1006C6008905F0918A05B0E00E9410191E2EFB01E3
:1006D6003797ED54F84FE081A6E00E9406190E2EDA
:1006E600FB013797ED54F84FE081A3E00E9406190D
:1006F600E029E12111F40C942706E0E0E0933508A7
:10070600E0913408F0E0BF013797ED54F84FE081EF
:10071600A6E00E9406190E2EFB013697ED54F84FFF
:10072600E081A0E00E940619E02111F40C94BB04BC
:10073600E0913408F0E03597ED54F84FE081E13967
:1007460081F4E0913408F0E03397ED54F84FE081FE
:10075600F0E0E071F0700E94ED18E0939B05F093D5
:100766009C05E0913408F0E03597ED54F84FE081B0
:10077600E23911F00C94FF03E0913408F0E034976D
:10078600ED54F84FE081F0E0E0939705F09398057B
:10079600E0913408F0E03397ED54F84FE081F0E053
:1007A600E093A705F093A805689431F8E0E0F0E03F
:1007B600E0939905F0939A05E0938B00E4E0E093CB
:1007C6008A00E1E8E0938900EBE0E0938800E4E04A
:1007D600E0937D00E0E0F0E060E070E0E093AF05DC
:1007E600F093B0056093B1057093B205EEE3F0E0C7
:1007F600E093A905F093AA05E0913408F0E0359757
:10080600ED54F84FE081E33991F4E0913408F0E0DB
:100816003397ED54F84FE081F0E0E0938905F093CB
:100826008A05EFE3F0E0E093A905F093AA05E091CD
:100836003408F0E03597ED54F84FE081E439E1F4FF
:10084600E0913408F0E00F013497ED54F84FF08151
:10085600E0E0DF01F0013397ED54F84FE081F0E07E
:10086600EA2BFB2BE0938B05F0938C05E0E4F0E09C
:10087600E093A905F093AA05EFEFE0939005E093C6
:100886009105E0E0E0938805A0918805A63028F55B
:10089600E0918805F0E0ED54F84FE081EA930E947C
:1008A600D115A091B808B0E0A95CB74FE0918805D2
:1008B600F0E0ED54F84FE081EC93A091B808AF5FFB
:1008C600A093B808A03819F4E0E0E093B808E091E6
:1008D6008805EF5FE0938805D7CFB0919105A0E03A
:1008E600E0919005F0E0EA2BFB2BE0939505F09361
:1008F6009605E091B808F0E0E95CF74FA091950500
:10090600A083A091B808AF5FA093B808A03819F4E7
:10091600E0E0E093B808A091B808B0E0A95CB74F52
:10092600E0919505F09196050E94F618EC93A0913A
:10093600B808AF5FA093B808A03819F4E0E0E093D8
:10094600B808E3B1F0E0E460E3B9689433F8EFEF98
:10095600FFEFE0939505F0939605E8EDEAB9F89474
:10096600E091B708F0E0E95CF74FE081ECB97894E4
:10097600E0913408F0E0BF013797ED54F84FE0817D
:10098600A3E00E9406190E2EFB013697ED54F84F90
:10099600E081A0E00E9406190E22FB013497ED5477
:1009A600F84FE0810E9406190E22FB013397ED54A1
:1009B600F84FE081A1E00E940619E02111F40C94A1
:1009C6002706E0913408F0E03597ED54F84FE081C2
:1009D600E039C1F4E0913408F0E03697ED54F84F71
:1009E600A2E0A083E0913408F0E03597ED54F84F8B
:1009F600A091A205A083E0913408F0E03497ED546D
:100A0600F84F4082E0913408F0E03597ED54F84F06
:100A1600E081E139A1F5E0913408F0E03697ED5434
:100A2600F84FA2E0A083E0913408F0E03597ED544A
:100A3600F84F0F01E091A505F091A6050E9428192F
:100A4600EE0FA091AB05B091AC05F0E0EA2BFB2BC5
:100A5600DF01E091A505F091A6050E942819F0E0B6
:100A6600EA2BFB2BD001EC93E0913408F0E03497AD
:100A7600ED54F84FA0919205A083689424F8E09174
:100A86003408F0E03597ED54F84FE081E239D1F4BF
:100A9600E0913408F0E03697ED54F84FA2E0A083D9
:100AA600E0913408F0E03597ED54F84FA0919705A2
:100AB600A083E0913408F0E03497ED54F84FA0910C
:100AC600A705A083E0913408F0E03597ED54F84F80
:100AD600E081E339C9F4E0913408F0E03697ED544B
:100AE600F84FA2E0A083E0913408F0E03597ED548A
:100AF600F84FA0E0A083E0913408F0E03497ED547D
:100B0600F84FA0918905A083E0913408F0E035976D
:100B1600ED54F84FE081E439D9F4E0913408F0E07F
:100B26003697ED54F84FA2E0A083E0913408F0E048
:100B36003597ED54F84FDF01E0918C05EC93E09189
:100B46003408F0E03497ED54F84FA0918B05A0835C
:100B5600EFEFE0939005E0939105E0E0E0938805E0
:100B6600A0918805A53028F5E0918805F0E0ED54C0
:100B7600F84FE081EA930E94D115A091B808B0E041
:100B8600A95CB74FE0918805F0E0ED54F84FE0819D
:100B9600EC93A091B808AF5FA093B808A03819F4F9
:100BA600E0E0E093B808E0918805EF5FE093880500
:100BB600D7CFB0919105A0E0E0919005F0E0EA2B47
:100BC600FB2BE0939505F0939605E091B808F0E0CD
:100BD600E95CF74FA0919505A083A091B808AF5F97
:100BE600A093B808A03819F4E0E0E093B808A09103
:100BF600B808B0E0A95CB74FE0919505F09196056D
:100C06000E94F618EC93A091B808AF5FA093B808BD
:100C1600A03819F4E0E0E093B808E3B1F0E0E4604E
:100C2600E3B9689433F8EFEFFFEFE0939505F0939F
:100C36009605E8EDEAB9F894E091B708F0E0E95CCA
:100C4600F74FE081ECB97894A0E035FCA1E0E1E053
:100C56000E9406190E2EA0913608E0E00E940619A1
:100C6600E02141F0E89435F834F8E0E0E093340808
:100C7600E093350809911991E991EFBFF991E9914E
:100C8600B991A9919991899179916991F990199060
:100C9600099018958A939A93AA93EA93FA93EFB7D1
:100CA600EA93A0E020FCA1E0A13009F588EC90E0F1
:100CB6000197F1F7A0913909AF5FA0933909A038E0
:100CC60018F0E0E0E0933909E0913A09A09139097A
:100CD600EA1749F0E0913909F0E0E754F74FE0816F
:100CE600E0939C0004C0E89420F821F89498E991D8
:100CF600EFBFF991E991A991999189911895AA93D4
:100D0600EA93FA93EFB7EA93F894A0E033FCA1E0F4
:100D1600A13041F5A091B708AF5FA093B708A038FE
:100D260018F0E0E0E093B708E091B808A091B708A2
:100D3600EA1741F0E091B708F0E0E95CF74FE0818F
:100D4600ECB910C0E89433F834F8E3B1F0E0EB7F87
:100D5600F070E3B9E0E0E093B708E093B808EAB9C9
:100D6600E0E9EAB97894E991EFBFF991E991A9919F
:100D76001895AA93EA93EFB7EA93F894E7E0E2BFEF
:100D8600E0913608E03041F4A0E034FCA1E0A13067
:100D960011F4689435F805C0E0913608E150E09307
:100DA6003608E0918F05E03041F4A0E021FCA1E097
:100DB600A13011F4689422F805C0E0918F05E15046
:100DC600E0938F057894E991EFBFE991A991189581
:100DD600ECB3F0E0E270E1F7E981FA81FFBBEEBB2C
:100DE600E881EDBBECB3F0E0E460ECBBECB3F0E023
:100DF600E260ECBB23960895ECB3F0E0E270E1F715
:100E0600E881F981FFBBEEBBECB3F0E0E160ECBB3F
:100E1600EDB322960895E881F0E0309711F00C9436
:100E26005307E0916200F0E0EB7FF070E093620020
:100E3600E0916200F0E0EE7FF070E0936200E091F6
:100E46006200F0E0EF7BF070E0936200E0916200F8
:100E5600F0E0ED7FF070E0936200E0916200F0E078
:100E6600E77FF070E0936200E0916200F0E0EF7DD2
:100E7600F070E0936200E0916200F0E0EF77F070CE
:100E8600E0936200D898D998DB98DC98DD98DE98D4
:100E9600DF98AE98AF98AC98AB98AA98A99A04C474
:100EA600E130A0E0FA0711F00C949807E091620097
:100EB600F0E0EB7FF070E0936200E0916200F0E01A
:100EC600EE7FF070E0936200E0916200F0E0EF7B6D
:100ED600F070E0936200E0916200F0E0ED7FF07068
:100EE600E0936200E0916200F0E0E77FF070E0934B
:100EF6006200E0916200F0E0EF7DF070E093620046
:100F0600E0916200F0E0EF77F070E0936200D8982D
:100F1600D998DB98DC98DD98DE98DF98AE98AF9884
:100F2600AC98AB98AA98A99ABFC3E230A0E0FA079A
:100F360011F00C94DD07E0916200F0E0EB7FF070B9
:100F4600E0936200E0916200F0E0EE7FF070E093E3
:100F56006200E0916200F0E0EF7BF070E0936200E7
:100F6600E0916200F0E0ED7FF070E0936200E091C6
:100F76006200F0E0E77FF070E0936200E0916200CB
:100F8600F0E0EF7DF070E0936200E0916200F0E047
:100F9600EF77F070E0936200D898D998DB98DC98E8
:100FA600DD98DE98DF98AE98AF98AC98AB98AA9A81
:100FB600A99A7AC3E330A0E0FA0711F00C9422084C
:100FC600E0916200F0E0EB7FF070E0936200E09168
:100FD6006200F0E0EE7FF070E0936200E091620064
:100FE600F0E0EF7BF070E0936200E0916200F0E0E9
:100FF600ED7FF070E0936200E0916200F0E0E77F41
:10100600F070E0936200E0916200F0E0EF7DF07036
:10101600E0936200E0916200F0E0EF77F070E09319
:101026006200D898D998DB98DC98DD98DE98DF982E
:10103600AE98AF98AC98AB9AAA9AA99A35C3E43001
:10104600A0E0FA0711F00C946308E0916200F0E06A
:10105600EB7FF070E0936200E0916200F0E0EE7FDB
:10106600F070E0936200E0916200F0E0EF7BF070D8
:10107600E0936200E0916200F0E0ED7FF070E093B3
:101086006200E0916200F0E0E77FF070E0936200BA
:10109600E0916200F0E0EF7DF070E0936200E09195
:1010A6006200F0E0EF77F070E0936200D898D9988C
:1010B600DB98DC98DD98DE98DF98AE98AF98F0C2A2
:1010C600E530A0E0FA0711F00C94A308E091620065
:1010D600F0E0EB7FF070E0936200E0916200F0E0F8
:1010E600EE7FF070E0936200E0916200F0E0EF7B4B
:1010F600F070E0936200E0916200F0E0ED7FF07046
:10110600E0936200E0916200F0E0E77FF070E09328
:101116006200E0916200F0E0EF7DF070E093620023
:10112600E0916200F0E0EF77F070E0936200D8980B
:10113600D998DB98DC98DD98DE98DF98AE98AFC238
:10114600E630A0E0FA0711F00C94E208E0916200A4
:10115600F0E0EB7FF070E0936200E0916200F0E077
:10116600EE7FF070E0936200E0916200F0E0EF7BCA
:10117600F070E0936200E0916200F0E0ED7FF070C5
:10118600E0936200E0916200F0E0E77FF070E093A8
:101196006200E0916200F0E0EF7DF070E0936200A3
:1011A600E0916200F0E0EF77F070E0936200D8988B
:1011B600D998DB98DC98DD98DE98DF986FC2E73027
:1011C600A0E0FA0711F00C942009E0916200F0E02B
:1011D600EB7FF070E0936200E0916200F0E0EE7F5A
:1011E600F070E0936200E0916200F0E0EF7BF07057
:1011F600E0936200E0916200F0E0ED7FF070E09332
:101206006200E0916200F0E0E77FF070E093620038
:10121600E0916200F0E0EF7DF070E0936200E09113
:101226006200F0E0EF77F070E0936200D898D9980A
:10123600DB98DC98DD98DE9830C2E830A0E0FA074B
:1012460011F00C945D09E0916200F0E0EB7FF07024
:10125600E0936200E0916200F0E0EE7FF070E093D0
:101266006200E0916200F0E0EF7BF070E0936200D4
:10127600E0916200F0E0ED7FF070E0936200E091B3
:101286006200F0E0E77FF070E0936200E0916200B8
:10129600F0E0EF7DF070E0936200E0916200F0E034
:1012A600EF77F070E0936200D898D998DB98DC98D5
:1012B600DD98F2C1E930A0E0FA0711F00C94990923
:1012C600E0916200F0E0EB7FF070E0936200E09165
:1012D6006200F0E0EE7FF070E0936200E091620061
:1012E600F0E0EF7BF070E0936200E0916200F0E0E6
:1012F600ED7FF070E0936200E0916200F0E0E77F3E
:10130600F070E0936200E0916200F0E0EF7DF07033
:10131600E0936200E0916200F0E0EF77F070E09316
:101326006200D898D998DB98DC98B5C1EA30A0E07D
:10133600FA0711F00C94D409E0916200F0E0EB7F1B
:10134600F070E0936200E0916200F0E0EE7FF070F2
:10135600E0936200E0916200F0E0EF7BF070E093D2
:101366006200E0916200F0E0ED7FF070E0936200D1
:10137600E0916200F0E0E77FF070E0936200E091B8
:101386006200F0E0EF7DF070E0936200E0916200B1
:10139600F0E0EF77F070E0936200D898D998DB9888
:1013A60079C1EB30A0E0FA0711F00C940E0AE09137
:1013B6006200F0E0EB7FF070E0936200E091620083
:1013C600F0E0EE7FF070E0936200E0916200F0E002
:1013D600EF7BF070E0936200E0916200F0E0ED7F59
:1013E600F070E0936200E0916200F0E0E77FF07059
:1013F600E0936200E0916200F0E0EF7DF070E09330
:101406006200E0916200F0E0EF77F070E093620036
:10141600D898D9983EC1EC30A0E0FA0711F00C94A8
:10142600470AE0916200F0E0EB7FF070E093620023
:10143600E0916200F0E0EE7FF070E0936200E091F0
:101446006200F0E0EF7BF070E0936200E0916200F2
:10145600F0E0ED7FF070E0936200E0916200F0E072
:10146600E77FF070E0936200E0916200F0E0EF7DCC
:10147600F070E0936200E0916200F0E0EF77F070C8
:10148600E0936200D89804C1ED30A0E0FA0781F538
:10149600E0916200F0E0EB7FF070E0936200E09193
:1014A6006200F0E0EE7FF070E0936200E09162008F
:1014B600F0E0EF7BF070E0936200E0916200F0E014
:1014C600ED7FF070E0936200E0916200F0E0E77F6C
:1014D600F070E0936200E0916200F0E0EF7DF07062
:1014E600E0936200E0916200F0E0EF77F070CDC02B
:1014F600EE30A0E0FA0749F5E0916200F0E0EB7FFC
:10150600F070E0936200E0916200F0E0EE7FF07030
:10151600E0936200E0916200F0E0EF7BF070E09310
:101526006200E0916200F0E0ED7FF070E09362000F
:10153600E0916200F0E0E77FF070E0936200E091F6
:101546006200F0E0EF7DF0709AC0EF30A0E0FA079D
:1015560011F5E0916200F0E0EB7FF070E09362003D
:10156600E0916200F0E0EE7FF070E0936200E091BF
:101576006200F0E0EF7BF070E0936200E0916200C1
:10158600F0E0ED7FF070E0936200E0916200F0E041
:10159600E77FF0706EC0E031A0E0FA07D9F4E09181
:1015A6006200F0E0EB7FF070E0936200E091620091
:1015B600F0E0EE7FF070E0936200E0916200F0E010
:1015C600EF7BF070E0936200E0916200F0E0ED7F67
:1015D600F07049C0E131A0E0FA07A1F4E0916200A1
:1015E600F0E0EB7FF070E0936200E0916200F0E0E3
:1015F600EE7FF070E0936200E0916200F0E0EF7B36
:10160600F0702BC0E231A0E0FA0769F4E0916200C5
:10161600F0E0EB7FF070E0936200E0916200F0E0B2
:10162600EE7FF07014C0E331A0E0FA0731F4E091E8
:101636006200F0E0EB7FF07004C0E0916200F0E041
:10164600E460E0936200E0916200F0E0E160E09324
:101656006200E0916200F0E0E064E0936200E091F5
:101666006200F0E0E260E0936200E0916200F0E088
:10167600E860E0936200E0916200F0E0E062E093EF
:101686006200E0916200F0E0E068E0936200D89AC0
:10169600D99ADB9ADC9ADD9ADE9ADF9AAE9AAF9AED
:1016A600AC9AAB98AA98A99821960895AA93BA934A
:1016B600EA93FA93EFB7EA93E0E0E0938B00E4E075
:1016C600E0938A00E1E8E0938900EBE0E09388008C
:1016D600E4E0E0937D00A9E9B5E0ED91FD91319656
:1016E600FE93EE93E991EFBFF991E991B991A99132
:1016F6001895AA93BA93EA93FA93EFB7EA93E5E0BB
:10170600E5BDE0E0E4BDE3BDE7B7F0E0E064E7BFD8
:10171600A3EAB5E0ED91FD913196FE93EE93A0918B
:10172600A305B091A405519731F4E0E0F0E0E09311
:10173600A305F093A405E0916200F0E0DF01E091DB
:10174600A505F091A605E071F070EA2BFB2BE0935E
:101756006200A091A305B091A405199760F0A0912D
:10176600A505B091A605119731F4A091AB05B091EE
:10177600AC05119709F006C0E0916200F0E0E06167
:10178600E0936200A091A305B091A405199730F0EB
:10179600A091AD05B091AE05119709F001C0DA9A96
:1017A600A091A305B091A405199730F4A091AD05B9
:1017B600B091AE05119709F001C0DA98A091A30582
:1017C600B091A405199760F4A091A505B091A6055E
:1017D600119731F4A091AB05B091AC05119709F0C2
:1017E60007C0E0916200F0E0EF7EF070E0936200E7
:1017F600E991EFBFF991E991B991A9911895E5E0C1
:10180600E5BDE0E0E4BDE3BDE7B7F0E0E06405C0B8
:10181600E0E0E5BDE4BDE3BDE1E0E7BF08951A936E
:10182600E7B3F0E0E763E7BBE8B3F0E0E763E8BB04
:10183600C098E981FA810E94E418E983FA8310E0EE
:101846001C3098F4A981BA81A030E0E8BE0710F0F8
:10185600C29A01C0C298C198C19AE981FA81EE0F75
:10186600FF1FE983FA831F5FEBCFC09AC498C49A1F
:101876001881DAC222970E94051B689425F8E09128
:101886006200F0E0EF7EF070E0936200DA9AC0DF6B
:10189600E0910405F09105050E942819E295E07F84
:1018A600EE0FAE2FE091AD05F091AE050E94E41863
:1018B600EA2BDF01E0E025FCE1E0F0E00E94E6181B
:1018C600EA2BFB2B0F01E0E025FCE1E0F0E0A09124
:1018D600AD05B091AE05EA2BFB2B0E94E8180E2A47
:1018E6001F2AE091AB05F091AC050E942819EE0F76
:1018F600A091A505B091A605F0E0EA23FB230E2AE8
:101906001F2AE091AB05F091AC050E942819F0E082
:10191600EA23FB23A091AB05B091AC05EA2BFB2B88
:10192600D001EA2BE0939205E0E8FCE0FA93EA9313
:101936000E94C818A885B985119741F420E030E0C7
:1019460043E150E0E0E2F0E0EE83FF83E885F985CD
:10195600309741F423E130E046E250E0EDE2F0E07A
:10196600EE83FF8389010417150710F00C944E0DC2
:10197600E89422F821F8E0E0E0938D05E0938E05E7
:10198600E0930605E0930705E0930805E093090553
:10199600E0930A05E0930B05E0930C05E0930D0533
:1019A600E0930E05E0930F05EFEFFFEFE09393054D
:1019B600F0939405E1E0EA930E94FA15E4E0EA93D5
:1019C6000E94FA15E0E0EA930E94FA15EE81FF8183
:1019D600E00FF11FEA930E94FA15E0E0EA930E94F5
:1019E600FA15E1E0EA930E94FA150E941A16E0E061
:1019F600F0E0FDBDECBDE3E0EEBDE6B7F0E0E4707F
:101A0600E1F3E0E0EEBDE6B7E6BF0E944315E13044
:101A1600E9F4E0E0F0E0E0930005F0930105A09121
:101A26008E05A73091F4B0910905A0E0E0910A0572
:101A3600F0E0EA0FFB1FE0930005F0930105E0E0FC
:101A4600F0E0E0930405F093050506C0E1E0F0E060
:101A5600E0930405F09305057894A2E0A09FF001B9
:101A6600A19FF00DEB5FFB4FFA93EA93E091090516
:101A7600EA93AED9A2E0A09FF001A19FF00DEA5F24
:101A8600FB4FFA93EA93E0910A05EA93A1D9F894F9
:101A96000F5F1F4F68CFE89425F8DA98E091A50507
:101AA600F091A605309731F0E0916200F0E0E06138
:101AB600E0936200A4DE0E940C1B2A9608950E9401
:101AC600051B20E030E040E650E0689425F88901E7
:101AD6000331E0E01E0710F00C94F80DE09162006F
:101AE600F0E0EF7EF070E0936200DA9A91DEE8941F
:101AF60022F821F8E0E0E0938D05E0938E05E0936F
:101B06000605E0930705E0930805E0930905E093D1
:101B16000A05E0930B05E0930C05E0930D05E093B1
:101B26000E05E0930F05EFEFFFEFE0939305F093BB
:101B36009405E1E0EA930E94FA15E4E0EA930E9434
:101B4600FA15E0E0EA930E94FA15FA01E00FF11F98
:101B5600EA930E94FA15E0E0EA930E94FA15E1E0A2
:101B6600EA930E94FA150E941A16E0E0F0E0FDBD25
:101B7600ECBDE3E0EEBDE6B7F0E0E470E1F3E0E0F3
:101B8600EEBDE6B7E6BF0E944315E130D1F4E0E0D2
:101B9600F0E0E0930005F0930105A0918E05A730D3
:101BA60079F4A0910905BB27E0910A05F0E0EA2B3C
:101BB600E0939F05E0E0F0E0E0930405F09305056F
:101BC60006C0E1E0F0E0E0930405F09305057894A3
:101BD600E5E0F6E0FA93EA93E0919F05EA930E9426
:101BE600EB06F8940F5F1F4F73CFE89425F8DA9849
:101BF600E091A505F091A605309731F0E0916200DD
:101C0600F0E0E061E0936200FADD0E940C1B26968C
:101C160008951A930A93E89422F821F8E0E0E093F5
:101C26008D05E0938E0535F834F8E0933408E0939B
:101C36003508EFEFFFEFE0939305F0939405E1E0AD
:101C4600EA930E94FA15ECECEA930E94FA15E091E9
:101C5600A705EA930E94FA15E091A705EA930E9468
:101C6600FA1586C01A930A93E89422F821F8E0E060
:101C7600E0938D05E0938E0535F834F8E09334084B
:101C8600E0933508EFEFFFEFE0939305F0939405AB
:101C9600E1E0EA930E94FA15EBECEA930E94FA154A
:101CA600E0918C05EA930E94FA15E0918B05EA9380
:101CB6000E94FA155DC01A930A93E89422F821F857
:101CC600E0E0E0938D05E0938E0535F834F8E09377
:101CD6003408E0933508EFEFFFEFE0939305F093B8
:101CE6009405E1E0EA930E94FA15EDECEA930E946E
:101CF600FA1500E010E00C34E0E01E0768F4F80185
:101D0600EB5FFB4FFA93EA930E94FF06EA930E9469
:101D1600FA150F5F1F4FEFCF2BC01A930A93E89463
:101D260022F821F8E0E0E0938D05E0938E05EFEFD1
:101D3600FFEFE0939305F0939405E1E0EA930E94A8
:101D4600FA15EEECEA930E94FA1500E010E0033172
:101D5600E0E01E0768F4F801EB5FF94FFA93EA93A7
:101D66000E94FF06EA930E94FA150F5F1F4FEFCFFE
:101D76000E941A16099119910895A091A905B0918A
:101D8600AA05DE97C9F4E1E0F6E0FA93EA93E0915A
:101D96009705EA930E94EB06E2E0F6E0FA93EA93EF
:101DA600E091A705EA930E94EB0633DFE0E0F0E05E
:101DB600E093A905F093AA05A091A905B091AA05FB
:101DC600DF9779F4E0E0F6E0FA93EA93E09189058B
:101DD600EA930E94EB06E0E0F0E0E093A905F093B9
:101DE600AA05A091A905B091AA05A034E0E0BE0716
:101DF600C9F4E3E0F6E0FA93EA93E0918C05EA93FE
:101E06000E94EB06E4E0F6E0FA93EA93E0918B0594
:101E1600EA930E94EB0626DFE0E0F0E0E093A905F6
:101E2600F093AA05E89423F8239608952A9700E0EC
:101E360010E020E030E041E050E0EFEFEABBE0E008
:101E4600EBBBECE0E7BBE0E0E8BBEFEDE4BBE0E2D8
:101E5600E5BBE8E1E1BBE0E8E2BBEFEFE093610060
:101E6600E0E0E0936200E0936400E0936500EBB984
:101E7600E8EDEAB9E6E0E0939500E0E0E093900053
:101E8600E3E3E9B9E0E0E0939B00E8EDE0939A0034
:101E9600E6E0E0939D00E0E0E0939800E3E3E09362
:101EA6009900A09AE0E8E8B9E0E0E0BDE0BFE2E032
:101EB600E3BFE0E0E2BFE1BFE093B307E093B4071E
:101EC600E093B507E093B607E093B707E093B8074A
:101ED600E093B907E093BA07E093BB07E093BC072A
:101EE600E093BD07E1E0E7BFE89422F821F8E0E0DF
:101EF600E0938D05E0938E0535F834F8E0933408C9
:101F0600E0933508DC9ADD9ADE9ADF9AAE9AAF9AAC
:101F1600AC9AAB9AAA9AA99AE4EFF1E0FA93EA93FB
:101F26000E94C818E0916200F0E0E061E093620070
:101F3600DA9AE0916200F0E0E460E0936200E091FA
:101F46006200F0E0E160E0936200E0916200F0E0A0
:101F5600E064E0936200E0916200F0E0E260E0930A
:101F66006200E0916200F0E0E860E0936200E091D8
:101F76006200F0E0E062E0936200E0916200F0E06F
:101F8600E068E0936200D89AD99ADB9ADC98DD98EB
:101F9600DE98DF98AE98AF98AC98AB98AA98A998B7
:101FA600E4EFF1E0FA93EA930E94C818E091620028
:101FB600F0E0EF7EF070E0936200DA98E091620064
:101FC600F0E0EB7FF070E0936200E0916200F0E0F9
:101FD600EE7FF070E0936200E0916200F0E0EF7B4C
:101FE600F070E0936200E0916200F0E0ED7FF07047
:101FF600E0936200E0916200F0E0E77FF070E0932A
:102006006200E0916200F0E0EF7DF070E093620024
:10201600E0916200F0E0EF77F070E0936200D8980C
:10202600D998DB98DC98DD98DE98DF98AE98AF9863
:10203600AC98AB98AA98A9987894EFEFF4E0FA9345
:10204600EA930E94FF06E0938705E1E0F6E0FA9343
:10205600EA930E94FF06EF3F59F0E1E0F6E0FA93BB
:10206600EA930E94FF06F0E0E0939705F093980547
:10207600E2E0F6E0FA93EA930E94FF06EF3F59F09A
:10208600E2E0F6E0FA93EA930E94FF06F0E0E093BE
:10209600A705F093A805E0E0F6E0FA93EA930E941C
:1020A600FF06EF3F59F0E0E0F6E0FA93EA930E946C
:1020B600FF06F0E0E0938905F0938A05E3E0F6E099
:1020C600FA93EA930E94FF06AFEF0E940B19EF9373
:1020D600E4E0F6E0FA93EA930E94FF06AFEF0E946F
:1020E6000B19AF91EA23E9F0E3E0F6E0FA93EA93FD
:1020F6000E94FF06FE2FE0E0E0938B05F0938C052F
:10210600E4E0F6E0FA93EA930E94FF06F0E0A0917D
:102116008B05B0918C05EA0FFB1FE0938B05F093BE
:102126008C05A0919705B0919805E0E0F0E00E943B
:1021360016190E2EA091AD05B091AE05E0E0F0E0C7
:102146000E941019E02179F0E0E0E0938B00E4E0D2
:10215600E0938A00E1E8E0938900EBE0E0938800F1
:10216600E4E0E0937D0055DDE0E0F0E0FDBDECBD90
:10217600E3E0EEBDE6B7F0E0E470E1F3E0E0EEBDEB
:10218600E6B7E6BF6FDDE0E0F0E0FDBDECBDE3E005
:10219600EEBDE6B7F0E0E470E1F3E0E0EEBDE6B7F1
:1021A600E6BF88249924AA24BB24A0918705A130E0
:1021B60011F00C949511E0E0F4E0FA93EA930E9492
:1021C600FF06AFEF0E940B19EF93E1E0F4E0FA93FC
:1021D600EA930E94FF06AFEF0E940B19AF91EA2324
:1021E600B1F0E0E0F4E0FA93EA930E94FF06FE2FD6
:1021F600E0E0FF93EF93E1E0F4E0FA93EA930E94C4
:10220600FF06F0E0AF91BF91EA0FFB1F4F01E2E03E
:10221600F4E0FA93EA930E94FF06AFEF0E940B19CF
:10222600EF93E3E0F4E0FA93EA930E94FF06AFEF40
:102236000E940B19AF91EA23B1F0E2E0F4E0FA93C1
:10224600EA930E94FF06FE2FE0E0FF93EF93E3E0A0
:10225600F4E0FA93EA930E94FF06F0E0AF91BF9193
:10226600EA0FFB1F5F01E4E0F4E0FA93EA930E94B1
:10227600FF06CE2EDD24EFEFF0E0EC15FD05A1F113
:10228600E8E2F0E0EC15FD0508F1E1E0F0E0E093AE
:10229600A505F093A605E4E1F0E0EC15FD0540F098
:1022A600E1E0F0E0E093AB05F093AC05A8DA0DC0F1
:1022B600E0916200F0E0E061E0936200E0E0F0E0CF
:1022C600E093AB05F093AC05A3DA0EC0E0E0F0E0D6
:1022D600E093A505F093A605E0916200F0E0EF7E9D
:1022E600F070E093620094DA18DDE0E0F0E0FDBD06
:1022F600ECBDE3E0EEBDE6B7F0E0E470E1F3E0E06C
:10230600EEBDE6B7E6BFD7DCE0E0F0E0FDBDECBD34
:10231600E3E0EEBDE6B7F0E0E470E1F3E0E0EEBD49
:10232600E6B7E6BFE0910405F09105050E9428197D
:10233600E295E07FEE0FAE2FE091AD05F091AE0590
:102346000E94E418EA2BDF01E0E025FCE1E0F0E082
:102356000E94E618EA2BFB2B0F01E0E025FCE1E0EA
:10236600F0E0A091AD05B091AE05EA2BFB2B0E94E3
:10237600E8180E2A1F2AE091AB05F091AC050E94E1
:102386002819EE0FA091A505B091A605F0E0EA2365
:10239600FB230E2A1F2AE091AB05F091AC050E94A3
:1023A6002819F0E0EA23FB23A091AB05B091AC0518
:1023B600EA2BFB2BD001EA2BE093920523FE0AC001
:1023C600E0913308EA93E0910205F0910305FA9350
:1023D600EA93D3DCE091AD05F091AE05A091AB0593
:1023E600B091AC05EA2BFB2B309719F00E94020C3A
:1023F60002C00E940B0CE0910405F0910505309790
:1024060081F0A99B02C0A99801C0A99AAA9B02C003
:10241600AA9801C0AA9AAB9B02C0AB9801C0AB9A1E
:102426001BC0A0E0A999A1E0E1E0EA2311F4A99874
:1024360001C0A99AA0E0AA99A1E0E1E0EA2311F47B
:10244600AA9801C0AA9AA0E0AB99A1E0E1E0EA232C
:1024560011F4AB9801C0AB9AE89422F821F8E0E0B9
:10246600E0938D05E0938E05E0930605E09307055E
:10247600E0930805E0930905E0930A05E0930B0550
:10248600E0930C05E0930D05E0930E05E0930F0530
:10249600EFEFFFEFE0939305F0939405E1E0EA9305
:1024A600A6D3E4E0EA93A3D3E0E0EA93A0D3E6E878
:1024B600EA939DD3E0E0EA939AD3E1E0EA9397D3D7
:1024C600B6D3E0E0F0E0FDBDECBDE3E0EEBDE6B77F
:1024D600F0E0E470E1F3E0E0EEBDE6B7E6BFD0D2AF
:1024E600E13011F00C94E81266247724A0918E0551
:1024F600A73049F4B0910905A0E0E0910A05F0E0A3
:10250600EA2BFB2B3F01AFEAB5E00E946419EF5FAF
:10251600FF4F6F4F7F4F0E946919E0E0F0E0E093B4
:102526000405F0930505F8010E9401190E94EA19B5
:102536007F936F93FF93EF93E091AF05F091B00512
:102546006091B1057091B2050E94EA19DF01CB01D5
:10255600E0E0F0E060E87FE30E9477190E941D1A30
:10256600DF01CB01E091AF05F091B0056091B105B7
:102576007091B2050E94EA190E94C01AAF91BF91EC
:102586008F919F910E94721A7F936F93FF93EF939F
:10259600F3010E9401190E94EA19DF01CB01E091C3
:1025A600AF05F091B0056091B1057091B2050E943A
:1025B600EA190E94C01AAF91BF918F919F910E9414
:1025C600241A0E94B3198F0106C0E1E0F0E0E093FF
:1025D6000405F0930505A0919705B0919805EEE1E5
:1025E600F0E00E943519A0919905B0919A050E94D4
:1025F6001C190E2EA0919705B0919805E0E0F0E029
:102606000E941619E02111F40C94AD13E0E0F0E0FD
:10261600E0939905F0939A053801E0E0F0E060E078
:1026260070E0E093AF05F093B0056093B105709349
:10263600B205D301EFE7F0E00E941C190E2EE1E887
:10264600FFEF0E942219E02979F0EFE7F0E06E161D
:102656007F0614F0E093A205E1E8FFEF6E167F0611
:1026660014F4E093A20502C06092A205E8EDEAB96F
:10267600E3B1F0E0E460E3B9EBE2F4E0FA93EA9365
:10268600F3010E9401190E947219E091A2050E94AD
:10269600FB180E94721988E00E948F182A96E3B1EF
:1026A600F0E0EB7FF070E3B9E0E9EAB900246014EA
:1026B600700444F4D301AD59BF4FEAE0F0E00E9444
:1026C6004D193F01062C072841F4D301AC59BF4FE1
:1026D600EAE0F0E00E944D193F01002406140704C9
:1026E60044F4D301AB59BF4FEAE0F0E00E944D1924
:1026F6003F01E4E1F0E0E619F7093F01E4E1F0E02B
:10270600E615F7050CF43F0100246014700414F478
:102716006624772423016A920E940E07E8EDEAB93F
:10272600E3B1F0E0E460E3B9E3E4F4E0FA93EA93BA
:10273600F3010E9401190E94721984E00E948F1809
:102746002696E3B1F0E0EB7FF070E3B9E0E9EAB991
:1027560000E010E0D301E4E6F0E00E943519EF5105
:10276600FF4FE883F983FA93EA930E94120CA09133
:102776009B05B0919C05119789F4E89426F89D98DD
:10278600A0E027FCA1E0A13029F4A0E030FCA1E004
:10279600A13009F003C0E89427F830F8A0E09D992D
:1027A600A1E0A03039F4A0E026FCA1E0A03011F4AD
:1027B600E1E001C0E0E0AE2FE0919B05F0919C05C1
:1027C600EA2B309711F40C941A15E0E0F0E0E09350
:1027D600A505F093A605E093AB05F093AC056894C8
:1027E60026F8E093A105A0E027FCA1E0A03029F49B
:1027F600A0E030FCA1E0A03009F042C0E0E0F0E04B
:10280600E0939B05F0939C0540E050E0E1E0F0E0AA
:10281600E093AD05F093AE05689427F8EFEFFFEF70
:10282600E0939305F0939405E1E0EA93E0D1E6E0C6
:10283600EA93DDD1E0E0EA93DAD1E1E8EA93D7D191
:10284600E0E0EA93D4D1E1E0EA93D1D1F0D1E0E03F
:10285600F0E0FDBDECBDE3E0EEBDE6B7F0E0E47010
:10286600E1F3E0E0EEBDE6B7E6BFE091AD05F0913D
:10287600AE05FA93EA930E943D0C0E94620DD7C002
:10288600A0E027FCA1E0A13029F4A0E030FCA1E003
:10289600A03009F0CCC0E0E0F0E0E0939B05F093B7
:1028A6009C05E093AD05F093AE05689430F8EFEF24
:1028B600FFEFE0939305F0939405E1E0EA9397D157
:1028C600E6E0EA9394D1E0E0EA9391D1E2E8EA9374
:1028D6008ED1E0E0EA938BD1E1E0EA9388D1A7D1EB
:1028E600E0E0F0E0FDBDECBDE3E0EEBDE6B7F0E014
:1028F600E470E1F3E0E0EEBDE6B7E6BFE89422F867
:1029060021F8E0E0E0938D05E0938E05E09307055E
:10291600E0930805E0930905E0930A05E0930B05AB
:10292600E0930C05E0930D05E0930E05E0930F058B
:10293600EFEFFFEFE0939305F0939405E1E0EA9360
:1029460056D1E4E0EA9353D1E0E0EA9350D1E7E8C8
:10295600EA934DD1E0E0EA934AD1E1E0EA9347D128
:1029660066D1E0E0F0E0FDBDECBDE3E0EEBDE6B72C
:10297600F0E0E470E1F3E0E0EEBDE6B7E6BF80D05C
:10298600E13091F4CC24DD24A0918E05A73049F4E2
:10299600B0910905A0E0E0910A05F0E0EA0FFB1FFF
:1029A6006F01E0E0F0E002C0E1E0F0E0E093040552
:1029B600F0930505E4E0F4E0FA93EA93CA920E94E4
:1029C600EB06E8E2F0E0EC15FD05A8F0E1E0F0E04A
:1029D600E093A505F093A605E4E1F0E0EC15FD050E
:1029E60018F0E1E0F0E002C0E0E0F0E0E093AB05D3
:1029F600F093AC0506C0E0E0F0E0E093A505F093A7
:102A0600A605E1E0E0938705E091AD05F091AE05FE
:102A1600FA93EA930E943D0C0E94620DEFEFF4E0F8
:102A2600FA93EA93E0918705EA930E94EB06A0E009
:102A36009D99A1E0A130D1F4A091A105AF5FA0932B
:102A4600A105A23098F0E89426F8E0E0E093A1050D
:102A5600A0E027FCA1E0A13029F4A0E030FCA1E031
:102A6600A13009F003C0E89427F830F8E89422F87A
:102A760021F8E0E0E0938D05E0938E0553CCFFCF7F
:102A86001A9311E0EFEFFFEFE0939305F0939405AF
:102A9600E0E0E093A005E0918D05F0E03197A0918C
:102AA600A005B0E0AE17BF0774F4E091A005F0E012
:102AB600EA5FFA4FE081EA932DD0E091A005EF5F3F
:102AC600E093A005E8CFE0918D05F0E0EA5FFA4FCC
:102AD600E081AE2FE0919305F09194050E94F618DF
:102AE600B0E0EA17FB0709F010E0E0918D05F0E091
:102AF6003197EA5FFA4FE081AE2FE0919305F091AE
:102B06009405F070B0E0EA17FB0709F010E0E12F3A
:102B1600199108951A93E981F0E0A0919305B09177
:102B26009405EA27FB27E0939305F093940510E0BC
:102B3600183098F5E0919305F0919405E170E1F075
:102B4600E0919305F0919405F595E795E09393054B
:102B5600F0939405E0919405EF77E0939405A091A6
:102B66009305B0919405E1E0F0EAEA27FB27E093AC
:102B76009305F09394050FC0E0919305F0919405A9
:102B8600F595E795E0939305F0939405E091940508
:102B9600EF77E09394051F5FCBCF26C01A93A091E1
:102BA6009005BB27E981F0E0EA271E2F00909105EA
:102BB6001124E12FA3EBB5E0F0E0EE0FFF1FAE0FFF
:102BC600BF1F0E9460190E94F618D001EA27E09301
:102BD6009005E12FA3EBB5E0F0E0EE0FFF1FAE0F7F
:102BE600BF1FEC91E0939105188122960895E88124
:102BF600EA9390DFE881EA9301D03BC0F894E09134
:102C06009D05EF5FE0939D05E0913A09F0E0E754FA
:102C1600F74FA881A083A0913A09AF5FA0933A0924
:102C2600A03819F4E0E0E0933A09789422C0E091E4
:102C36009305EA93E3DFE0919305F09194050E94F2
:102C4600F618EA93DBDF949AE0913909F0E0E7544D
:102C5600F74FE081E0939C00689420F8EFEFFFEFD8
:102C6600E0939305F093940508955D9BFECFE8816C
:102C7600ECB9219608951A930A93AC81BD810E94FE
:102C860060193097D9F0AA81BB810E9460198F0123
:102C9600309749F00230E0E01E0778F0F8013197EE
:102CA6008F01ED93FC93AC81BD81ED91FD91319641
:102CB600FE93EE933197AE81A08303C0EE81EA9333
:102CC600D4DF198108812796089526970E94051B4F
:102CD60010E0EA89FB893196EA8BFB8B3197E49108
:102CE6002E2FE03011F40C948B18E12FF0E0309782
:102CF60079F4253211F411E00AC02A93EF85F88998
:102D0600FA93EA93FE013F96FA93EA93B4DFFFC182
:102D1600E130A0E0FA07E9F4253259F42A93EF8569
:102D2600F889FA93EA93FE013F96FA93EA93A3DFB2
:102D3600EDC112E040E000E02D3211F401E0E7C100
:102D46002B3211F44BE2E3C1203211F440E2DFC131
:102D560004C0E230A0E0FA0761F450E013E020334B
:102D660039F4A02FB0E0E0E8F0E0EA2B0E2FCFC157
:102D760006C0E330A0E0FA0711F00C948A1820335D
:102D860010F02A3308F015C0A52FB0E0EAE0F0E015
:102D9600EA02F0015E2F652F7727A22FB0E0E0E36D
:102DA600F0E00E947D19EA1BFB0BDB01EA0F5E2FA8
:102DB600AEC1E22FF0E0E336A0E0FA0789F4E88935
:102DC600F9893497E88BF98BA481AA93EF85F88962
:102DD600FA93EA93FE013F96FA93EA934CDF96C183
:102DE600E337A0E0FA0791F4E889F9893497E88B8C
:102DF600F98BA889B98914960E946019EE83FF831E
:102E0600FA93EA930E94B3181E2F1BC0E037A0E086
:102E1600FA0729F5E889F9893497E88BF98BA889A7
:102E2600B98914960E946019EE83FF83FA93EA9398
:102E36000E94BD181E2FA02FB0E0E8E0F0E0EA2BBC
:102E46000E2FA02FB0E0E2E0F0E0EA2B0E2FA02F2D
:102E5600B0E0EFE7FFEFEA230E2F30E062C0E43682
:102E6600A0E0FA0721F0E936A0E0FA0739F4A02F2E
:102E7600B0E0E4E0F0E0EA2B0E2F04C0E537A0E076
:102E8600FA0731F4ECE8F0E0EE83FF8315E016C0B4
:102E9600E835A0E0FA0739F4A02FB0E0E8E0F0E06A
:102EA600EA2B0E2F06C0E837A0E0FA0711F00C94C3
:102EB6008918E6E9F0E0EE83FF8314E0A02FB0E086
:102EC600E4E0F0E0EA23FB233097F9F0E889F9899A
:102ED6003497E88BF98BA889B98914960E946019F2
:102EE600EA87FB87AB85AA232AF40E94D818EA87CB
:102EF600FB874DE2403011F01F5F06C0A02FB0E007
:102F0600EBEFFFEFEA230E2F0CC0E889F98934971F
:102F1600E88BF98BA889B98914960E946019EA870B
:102F2600FB87E02FF0E0E17051F5151740F5A02F73
:102F3600B0E0E0E8F0E0EA23FB23309799F0A02F19
:102F4600B0E0E4E0F0E0EA23FB23309749F0A02F5D
:102F5600B0E0EBEFFFEFEA230E2F242F115001C054
:102F660020E301C020E22A93EF85F889FA93EA93D9
:102F7600FE013F96FA93EA937EDE5150D6CF312F6B
:102F8600A02FB0E0E2E0F0E0EA23FB23309739F12E
:102F9600303021F1A02FB0E0E8E0F0E0EA23FB2397
:102FA600309741F0EE81FF813196EE83FF833197B2
:102FB600E49105C0AE81BF81ED91AE83BF83EA93F4
:102FC600EF85F889FA93EA93FE013F96FA93EA931E
:102FD60052DE503009F051503150DACF84C020E330
:102FE600EE81FF810E946E19E887F987EE81FF81E5
:102FF6003296EE83FF83E885F985AA85BB85AE17F1
:10300600BF0750F02F5FA885B985EA85FB85EA1BC7
:10301600FB0BEA87FB87EFCF2A3380F0A02FB0E0C7
:10302600E8E0F0E0EA23FB23309721F0E22FF0E01E
:10303600379603C0E22FF0E0B7962E2FA02FB0E010
:10304600E0E1F0E0EA23FB23309709F039C02133B1
:1030560020F4A885B985119709F411C0531720F0FB
:10306600E02FF0E0E17009F038C020E2A02FB0E0D8
:10307600E0E8F0E0EA23FB23309711F120E3A02FEC
:10308600B0E0E0E1F0E0EA2B0E2FA02FB0E0E4E0A4
:10309600F0E0EA23FB23309799F0A02FB0E0EBEFA6
:1030A600FFEFEA230E2F4A93EF85F889FA93EA9306
:1030B600FE013F96FA93EA93DEDD503009F0515057
:1030C6002A93EF85F889FA93EA93FE013F96FA93DD
:1030D600EA93D1DD503009F051503150A885B985B9
:1030E600129708F07CCFE02FF0E0E17079F05030D5
:1030F60069F05150E0E2EA93EF85F889FA93EA9392
:10310600FE013F96FA93EA93B6DDF1CF10E0E1CDEA
:103116000E940C1B64960895FF92F82E22971A932C
:103126000A93DE010E94D4188D01E0E0EA83EB8366
:10313600DE0114960E94D4180E946019FA93EA934D
:103146001A930A93FE013696FA93EA93E0E0F0E0CA
:10315600FA93EA93BADD198108812496FF900895BF
:10316600A991B991EE27FF276D91662311F031964B
:10317600FBCF0895AA27BB27E991F9910590002076
:1031860011F01196FBCFFD010895E991F991309662
:1031960039F080ED97E00197F1F7A8953197C9F7D7
:1031A60008950024AF0DB01D0895F195E195F04006
:1031B6000895F09560957095E195FF4F6F4F7F4F9D
:1031C6000895EE0FFF1FEE0FFF1FEE0FFF1FEE0F0E
:1031D600FF1F0895F595E795F595E795F595E7951C
:1031E600F595E7950895EF2FFF27E7FDFFEF089583
:1031F600FE2FFF0FFF0B6F2F7F2F08956F2F660F88
:10320600660B762F0895EA17E1E009F0EE27089598
:10321600EA17E1E009F4EE270895EA17FB07E1E073
:1032260009F0EE270895EA17FB07E1E009F4EE2717
:103236000895AE17BF07E1E00CF4EE270895AE1728
:10324600BF07E1E00CF0EE270895EF2BE1E009F06F
:10325600E0E00895FA9FF02DEB9FF00DEA9FE02D38
:10326600F10D08951CD0F6DF0EF49FDF08950024BB
:10327600112490E1AA0FBB1F001C111C0E1A1F0A75
:1032860018F40E0E1F1E01C0A1609A9599F7FD0154
:10329600D001089504D0EBDF0EF487DF0895E8949B
:1032A600F7FF02C082DF6894B7FF06C0A095B0950D
:1032B600119600F8039400FA0895ED91FC91119788
:1032C6000895ED91FD916D917D9108957E936E9394
:1032D600FE93EE9308950590F491E02D08957A9368
:1032E6006A93FA93EA930895182E862F612D192E64
:1032F600972F712D1B2EBF2FF12D1A2EAE2FE12DDC
:103306000895552342F4503811F4E0FF04C0319675
:10331600691F791F6BF050E8572711F45F93CDC0F2
:103326005F3F31F0660F000C57956795752F08952E
:103336005F9300200AF0CDC0C6C050E8192E1522B2
:10334600880F991F9527550F879550E8072E052258
:10335600660F771F7527550F67950895689401C006
:10336600E8945F93F2DF703818F07F3F08F4A5C049
:1033760056E1571BAAF4519558300EF4593030F0E7
:10338600EFEFFFEF6FEF7FE777F91AC07727552347
:10339600B9F0EE0FFF1F661F771F5A95D1F710C0C1
:1033A6007727583028F0EF2FF62F672F5850F9CF90
:1033B600552331F076956795F795E7955A95D1F7A8
:1033C60000200AF4F6DE5F910895689401C0E8943F
:1033D600309760407040B1F0002426F0772312F455
:1033E6000094E7DE172E7EE1112032F07A95EE0F7B
:1033F600FF1F661F111CF9CFEF2FF62F612D5F936C
:103406008ADF5F9108954F93AF01FD01DA01AB01A9
:10341600BC01CA01402D012C142E4F910895EA0FCC
:10342600FB1F681F0895E095F0956095EF5FFF4FCD
:103436006F4F08955F9381DF903871F150E815263C
:1034460004C05F937ADF903839F1703821F1572F35
:10345600591B13F112F4D7DFFACF583118F0AA2707
:10346600BB278827583028F0AB2FB82F882758500D
:10347600F9CF552329F08695B795A7955A95D9F78B
:10348600502D512562F0CBDF38F46795F795E79517
:10349600739513F41EC0B7DF3EDF5F910895EA1BF4
:1034A600FB0B680B51F010F40094BDDF6623A2F30A
:1034B600EE0FFF1F661F7A95CBF7EE27FF276627CD
:1034C60077275F910895EFEFFFEF6FE77FEF5F914B
:1034D6000895EFEFFFEF6FE77FE75F9108955F9342
:1034E6002CDF703851F3903841F301240894791F8A
:1034F60023F41CF300203AF3ECCF0F921F932F9383
:103506003F934F93112722279927689FA0018F9FEA
:10351600302D410D591F6B9F300D411D591F8E9F38
:1035260027D0BF9F25D06A9F23D0BE9F1DD0AF9FB7
:103536001BD0AE9F110D291F391F491F591FE32F9D
:10354600F42F652F522F4F913F912F911F910F907E
:1035560066232AF0550FEE1FFF1F661F02C07395E4
:103566004BF2CFDE5F910895100D211D391F02C069
:10357600200D311D491F591F08955F93DEDE7038F7
:1035860021F411200AF49FCFA4CF903809F495CFE7
:1035960001240894970B1BF4D4F30020F3CF792F62
:1035A6001F932F933F934F931124112722273327DD
:1035B6004427552790E2AE17BF078607410730F02C
:1035C600AE1BBF0B860B410B089401C08894551F98
:1035D600221F331F111CAA1FBB1F881F441F9A9549
:1035E60051F7F901612D4F913F912F911F9166235C
:1035F60032F0550FEE1FFF1F661F7A9543F281DEEC
:103606005F9108955A934A933A932A931A930A9389
:1036160008955D814C813B812A8119810881089535
:00000001FF
