:020000000C945E
:1000020046020C9400000C9400000C9400000C9426
:1000120000000C9400000C9400000C9400000C945E
:1000220000000C9400000C94B30B0C9400000C9490
:1000320000000C9400000C9400000C9400000C943E
:10004200AA070C94D1070C94B7020C9400000C94EC
:1000520077070C9400000C9400000C9400000C94A0
:1000620000000C9400000C9400000C9400000C940E
:1000720000000C94900B0C9479020C9400000C94E8
:1000820045070C9400000C9400001027E80364005C
:100092000A00010000100001100001000000000031
:1000A200000001000100010001001E0028001E00E6
:1000B2000300010091340000C0C1C1810140C301AD
:1000C20003C00280C241C60106C00780C7410500C5
:1000D200C5C1C4810440CC010CC00D80CD410F00CC
:1000E200CFC1CE810E400A00CAC1CB810B40C901EB
:1000F20009C00880C841D80118C01980D9411B0025
:10010200DBC1DA811A401E00DEC1DF811F40DD0142
:100112001DC01C80DC411400D4C1D5811540D7011B
:1001220017C01680D641D20112C01380D3411100EC
:10013200D1C1D0811040F00130C03180F141330093
:10014200F3C1F28132403600F6C1F7813740F50142
:1001520035C03480F4413C00FCC1FD813D40FF01CB
:100162003FC03E80FE41FA013AC03B80FB4139006C
:10017200F9C1F88138402800E8C1E9812940EB0142
:100182002BC02A80EA41EE012EC02F80EF412D00C4
:10019200EDC1EC812C40E40124C02580E54127001B
:1001A200E7C1E68126402200E2C1E3812340E1016A
:1001B20021C02080E041A00160C06180A1416300B4
:1001C200A3C1A28162406600A6C1A7816740A501C2
:1001D20065C06480A4416C00ACC1AD816D40AF01CB
:1001E2006FC06E80AE41AA016AC06B80AB416900EC
:1001F200A9C1A88168407800B8C1B9817940BB0122
:100202007BC07A80BA41BE017EC07F80BF417D0043
:10021200BDC1BC817C40B40174C07580B54177001A
:10022200B7C1B68176407200B2C1B3817340B101E9
:1002320071C07080B041500090C1918151409301D2
:1002420053C052809241960156C057809741550043
:1002520095C1948154409C015CC05D809D415F00CA
:100262009FC19E815E405A009AC19B815B40990169
:1002720059C058809841880148C0498089414B0043
:100282008BC18A814A404E008EC18F814F408D01C1
:100292004DC04C808C41440084C18581454087011A
:1002A20047C046808641820142C04380834141006B
:1002B20081C1808140400D0A20696620796F7520D6
:1002C20077616E7420746F20736574204D6F646261
:1002D2007573206164647265737320706C656173F9
:1002E20065207479706520276127206C65747465B8
:1002F20072200D0A000D0A20696620796F75207739
:10030200616E7420746F207365742041766572612A
:1003120067696E67206F75742074696D65207661F8
:100322006C756520706C65617365207479706520E9
:10033200277627206C6574746572200D0A000D0AF9
:1003420020696620796F752077616E7420746F2042
:1003520073657420746865206E756D626572206FB6
:100362006620776F726B696E67206672657175655C
:100372006E6369657320706C656173652074797052
:100382006520276627206C6574746572200D0A004B
:100392000D0A20696620796F752077616E7420746A
:1003A2006F2073657420746865206D696E696D6174
:1003B2006C20534B5A2076616C756520696E204122
:1003C200444320756E69747320706C656173652097
:1003D2007479706520276D27206C657474657220AE
:1003E2000D0A000D0A20696620796F752077616E0B
:1003F2007420746F206F76657276696577207468F1
:10040200652063757272656E7420636F6E666967CC
:1004120075726174696F6E2020706C6561736520FE
:100422007479706520276F27206C6574746572205B
:100432000D0A000001002D4E414E00494E460000BB
:10044200020002009E0004000400A00001008D05CD
:10045200A60001008E05A80001008F05AA00010078
:100462009105AC0001009305AE0001009F05B000AC
:100472000100B505B2000200C105B6000002C305C5
:10048200B80001004B0936040000F894EE27ECBBDB
:10049200F1E0F5BFE5BFE0936C00F8E1F1BDE1BD2D
:1004A2008DE0A2E0BB27ED938A95E9F780E090E129
:1004B200A0E0B1E0ED930197E9F7E2E4F4E0859181
:1004C2009591009761F0A591B59105901590BF01A6
:1004D200F00105900D920197E1F7FB01F0CF8BBF80
:1004E200EFEFEDBFE0E1EEBFC0E0D5E00C948E0F80
:1004F200AA93EA93FA93EFB7EA931A930A931091A5
:100502009B0000919C0020FC02C022FE01C026C07C
:10051200E0919705E03029F4689421F8E0E0E09357
:100522009505E8ECE0939705E0919505F0E0E65F2C
:10053200FA4F0083A0919505AF5FA0939505A0386F
:1005420018F0E0E0E0939505A0919605AF5FA093C7
:100552009605A03818F0E0E0E0939605099119910C
:10056200E991EFBFF991E991A99118950A921A922E
:10057200FA926A937A938A939A93AA93BA93EA9392
:10058200FA93EFB7EA930E94751A20E030E0F894EC
:100592001BB10CB17894E0914508E03019F4E0E029
:1005A200E0938A05E0E9EAB933FC2DC0E091460800
:1005B200E03039F4689434F8E0E0E0934408E093E2
:1005C2008A05EEE0E0934608E0918A05EF5FE0934A
:1005D2008A05E0914408F0E0ED53F84F0083A091C2
:1005E2004408AF5FA0934408A03818F0E0E0E0931D
:1005F2004408A0914508AF5FA0934508A03818F0C1
:10060200E0E0E0934508E89424F8689423F8009326
:100612004308E0910605F09107050E942D1AE29524
:10062200E07FEE0FA0918D05EA2BAE2FE091BB0586
:10063200E295E07FEA2B0E2EA0E025FCA1E0EA2F56
:10064200EE0FEE0FEE0F0E2AE0E025FCE1E0A091A6
:10065200BB05EA2BEE0FEE0F0E2AE091B905F091E1
:10066200BA050E942D1AEE0FA091B305EA230E2AB5
:10067200E091B905F091BA050E942D1AEA23A091E2
:10068200B905EA2BE029E0939A05A0918A05A830E2
:1006920009F0D3C3E0914408F0E0BF013897ED536D
:1006A200F84FA081E0918F05F0919005B0E00E9493
:1006B200091A1E2EFB013797ED53F84FA081E6E091
:1006C2000E94FF190E2EFB013797ED53F84FA081C0
:1006D200E3E00E94FF19E029E12109F4AEC3E0E062
:1006E200E0934508E0914408F0E0BF013797ED53ED
:1006F200F84FA081E6E00E94FF190E2EFB0136970B
:10070200ED53F84FA081E0E00E94FF19E02109F4C7
:100712005AC1E0914408F0E03597ED53F84FA081BB
:10072200A13981F4E0914408F0E03397ED53F84F9A
:10073200E081F0E0E071F0700E94EC19E093A30513
:10074200F093A405E0914408F0E03597ED53F84F9B
:10075200A081A23909F046C0E0914408F0E0349744
:10076200ED53F84FA081EEE1EA9FF001E0939F057F
:10077200F093A005309731F4E2E0F0E0E0939F05BA
:10078200F093A005E0914408F0E03397ED53F84F61
:10079200E081F0E0E093B505F093B605689431F896
:1007A200E0E0E093A105E093A205E0938B00E4E092
:1007B200E0938A00E1E8E0938900EBE0E0938800AF
:1007C200E4E0E0937D00E0E0E093BD05E093BE0548
:1007D200E093BF05E093C005EEE3F0E0E093B705D8
:1007E200F093B805E0914408F0E03597ED53F84FE7
:1007F200A081A33991F4E0914408F0E03397ED53DE
:10080200F84FE081F0E0E0938F05F0939005EFE37D
:10081200F0E0E093B705F093B805E0914408F0E00A
:100822003597ED53F84FA081A439E1F4E0914408E3
:10083200F0E00F013497ED53F84FF081E0E0DF0173
:10084200F0013397ED53F84FE081F0E0EA2BFB2BF8
:10085200E0939105F0939205E0E4F0E0E093B705B0
:10086200F093B805E0914408F0E03597ED53F84F66
:10087200A081A53909F5E0E0E0939305E0939405A2
:10088200E0914408F0E00F013497ED53F84FF08106
:10089200E0E0DF01F0013397ED53F84FE081F0E043
:1008A200EA2BFB2BE0939305F0939405E1E4F0E04F
:1008B200E093B705F093B805E0914408F0E035976E
:1008C200ED53F84FA081AC3A31F4E1E0F0E0E0936F
:1008D200A505F093A605EFEFE0939805E09399053F
:1008E200E0E0E0938C05A0918C05A63020F5E09124
:1008F2008C05F0E0ED53F84FA0810E94E117A09122
:10090200C808B0E0A95BB74FE0918C05F0E0ED5369
:10091200F84FE081EC93A091C808AF5FA093C8089C
:10092200A03819F4E0E0E093C808E0918C05EF5F8D
:10093200E0938C05D8CFB0919905A0E0E09198059D
:10094200F0E0EA2BFB2BE0939D05F0939E05E091EE
:10095200C808F0E0E95BF74FA0919D05A083A09144
:10096200C808AF5FA093C808A03819F4E0E0E0938C
:10097200C808A091C808B0E0A95BB74FE0919D05F7
:10098200F0919E050E94F519EC93A091C808AF5F03
:10099200A093C808A03819F4E0E0E093C8081A9AB6
:1009A200689433F8EFEFFFEFE0939D05F0939E0517
:1009B200E8EDEAB9F894E091C708F0E0E95BF74F97
:1009C200E081ECB97894E0914408F0E0BF013797F8
:1009D200ED53F84FA081E3E00E94FF190E2EFB01B8
:1009E2003697ED53F84FA081E0E00E94FF190E22E6
:1009F200FB013497ED53F84FA081E0E00E94FF190C
:100A02000E22FB013397ED53F84FA081E1E00E94E3
:100A1200FF19E02109F411C2E0914408F0E0359792
:100A2200ED53F84FA081A039C1F4E0914408F0E001
:100A32003697ED53F84FA2E0A083E0914408F0E02E
:100A42003597ED53F84FA091AE05A083E09144088D
:100A5200F0E03497ED53F84F4082E0914408F0E023
:100A62003597ED53F84FA081A13971F5E091440813
:100A7200F0E03697ED53F84FA2E0A083E0914408EE
:100A8200F0E03597ED53F84F0F01E091B305F09187
:100A9200B4050E942D1AEE0FA091B905EA2BAE2FD4
:100AA200E091B305F091B4050E942D1AEA2BD00112
:100AB200EC93E0914408F0E03497ED53F84FA091A5
:100AC2009A05A083689424F8E0914408F0E03597F1
:100AD200ED53F84FA081A23911F5E0914408F0E0FE
:100AE2003697ED53F84FA2E0A083E0914408F0E07E
:100AF2003597ED53F84FBF01A0919F05B091A00526
:100B0200EEE1F0E00E94451ADB01EC93E09144082B
:100B1200F0E03497ED53F84FA091B505A083E09132
:100B22004408F0E03597ED53F84FA081A339C9F49A
:100B3200E0914408F0E03697ED53F84FA2E0A0832D
:100B4200E0914408F0E03597ED53F84FA0E0A08320
:100B5200E0914408F0E03497ED53F84FA0918F05EF
:100B6200A083E0914408F0E03597ED53F84FA0815F
:100B7200A439D9F4E0914408F0E03697ED53F84FE8
:100B8200A2E0A083E0914408F0E03597ED53F84FDE
:100B9200DF01E0919205EC93E0914408F0E0349794
:100BA200ED53F84FA0919105A083E0914408F0E045
:100BB2003597ED53F84FA081A539D9F4E091440857
:100BC200F0E03697ED53F84FA2E0A083E09144089D
:100BD200F0E03597ED53F84FDF01E0919405EC9387
:100BE200E0914408F0E03497ED53F84FA09193055B
:100BF200A083E0914408F0E03597ED53F84FA081CF
:100C0200A639C9F4E0914408F0E03697ED53F84F65
:100C1200A2E0A083E0914408F0E03597ED53F84F4D
:100C2200A0E0A083E0914408F0E03497ED53F84F40
:100C3200A091C105A083E0914408F0E03597ED53FF
:100C4200F84FA081A739F9F4E0914408F0E0369713
:100C5200ED53F84FA2E0A083E0914408F0E035970D
:100C6200ED53F84FBF01A091A705E8E00E94DD19FE
:100C7200DB01EC93E0914408F0E03497ED53F84F38
:100C8200A091A705A083E0914408F0E03597ED53C9
:100C9200F84FA081A839D9F4E0914408F0E03697E2
:100CA200ED53F84FA2E0A083E0914408F0E03597BD
:100CB200ED53F84FDF01E0910305EC93E091440816
:100CC200F0E03497ED53F84FA0910205A083E09134
:100CD2004408F0E03597ED53F84FA081A939B1F4FB
:100CE200E0914408F0E03697ED53F84FA2E0A0837C
:100CF200E0914408F0E03597ED53F84F9082E0918F
:100D02004408F0E03497ED53F84F8082E0914408B4
:100D1200F0E03597ED53F84FA081AA39B1F4E09194
:100D22004408F0E03697ED53F84FA2E0A083E0913B
:100D32004408F0E03597ED53F84FB082E091440853
:100D4200F0E03497ED53F84FA082EFEFE09398056F
:100D5200E0939905E0E0E0938C05A0918C05A53025
:100D620020F5E0918C05F0E0ED53F84FA0810E9450
:100D7200E117A091C808B0E0A95BB74FE0918C05DC
:100D8200F0E0ED53F84FE081EC93A091C808AF5F1B
:100D9200A093C808A03819F4E0E0E093C808E091F5
:100DA2008C05EF5FE0938C05D8CFB0919905A0E058
:100DB200E0919805F0E0EA2BFB2BE0939D05F09380
:100DC2009E05E091C808F0E0E95BF74FA0919D0510
:100DD200A083A091C808AF5FA093C808A03819F4F7
:100DE200E0E0E093C808A091C808B0E0A95BB74F63
:100DF200E0919D05F0919E050E94F519EC93A0915A
:100E0200C808AF5FA093C808A03819F4E0E0E093E7
:100E1200C8081A9A689433F8EFEFFFEFE0939D0544
:100E2200F0939E05E8EDEAB9F894E091C708F0E086
:100E3200E95BF74FE081ECB97894A0E035FCA1E0E2
:100E4200E1E00E94FF190E2EA0914608E0E00E9408
:100E5200FF19E02141F0E89435F834F8E0E0E0933E
:100E62004408E09345080E947C1A2496E991EFBF5A
:100E7200F991E991B991A9919991899179916991A0
:100E8200F9901990099018958A939A93AA93EA93E4
:100E9200FA93EFB7EA9320FE21C088EC90E0019725
:100EA200F1F7A0914909AF5FA0934909A03818F062
:100EB200E0E0E0934909E0914A09A0914909EA1763
:100EC20049F0E0914909F0E0E753F74FE081E09300
:100ED2009C0004C0E89420F821F89498E991EFBFAF
:100EE200F991E991A991999189911895AA93EA9317
:100EF200FA93EFB7EA93F89433FE24C0A091C7089F
:100F0200AF5FA093C708A03818F0E0E0E093C708ED
:100F1200E091C808A091C708EA1741F0E091C7081C
:100F2200F0E0E95BF74FE081ECB90CC0E89433F8EC
:100F320034F81A98E0E0E093C708E093C808EAB9E9
:100F4200E0E9EAB97894E991EFBFF991E991A991C1
:100F52001895EA93EFB7EA93F894E7E0E2BFE091DD
:100F62004608E03029F434FE02C0689435F805C022
:100F7200E0914608E150E0934608E0919705E030A1
:100F820029F421FE02C0689422F805C0E091970579
:100F9200E150E09397057894E991EFBFE9911895B4
:100FA2008A939A93EA93EFB7EA93E0918E05E03041
:100FB20059F4E091B105EFB9E1E0E0938E0580E9E3
:100FC20091E00197F1F7C498C09AE991EFBFE991D6
:100FD200999189911895BA93AA93C49880E991E05E
:100FE2000197F1F7C49AC09880E991E00197F1F76F
:100FF200A0918E05A13031F4E0E0E0938E05E98105
:10100200F070EFB917C0AA93E199FECFE981FA8196
:10101200FFBBEEBBE881EDBBE29AE19A239608950D
:10102200BA93AA93E199FECFE881F981FFBBEEBBA7
:10103200E09AEDB322960895AA93E881F0E0309702
:1010420089F5E0916200EB7FE0936200E09162003B
:10105200EE7FE0936200E0916200EF7BE09362003A
:10106200E0916200ED7FE0936200E0916200E77F31
:10107200E0936200E0916200EF7DE0936200E09114
:101082006200EF77E0936200D898D998DB98DC98F9
:10109200DD98DE98DF98AE98AF98AC98AB9AAA9A92
:1010A200A99A3BC3E130A0E0FA0789F5E09162001A
:1010B200EB7FE0936200E0916200EE7FE0936200DA
:1010C200E0916200EF7BE0936200E0916200ED7FCD
:1010D200E0936200E0916200E77FE0936200E091BA
:1010E2006200EF7DE0936200E0916200EF77E093AF
:1010F2006200D898D998DB98DC98DD98DE98DF9862
:10110200AE98AF98AC98AB98AA98A99A06C3E23069
:10111200A0E0FA0789F5E0916200EB7FE0936200BC
:10112200E0916200EE7FE0936200E0916200EF7B6B
:10113200E0936200E0916200ED7FE0936200E09153
:101142006200E77FE0936200E0916200EF7DE0934E
:101152006200E0916200EF77E0936200D898D9983C
:10116200DB98DC98DD98DE98DF98AE98AF98AC9863
:10117200AB98AA9AA99AD1C2E330A0E0FA0789F5FE
:10118200E0916200EB7FE0936200E0916200EE7F0B
:10119200E0936200E0916200EF7BE0936200E091F5
:1011A2006200ED7FE0936200E0916200E77FE093EE
:1011B2006200E0916200EF7DE0936200E0916200E4
:1011C200EF77E0936200D898D998DB98DC98DD98A5
:1011D200DE98DF98AE98AF98AC98AB9AAA9AA99A83
:1011E2009CC2E430A0E0FA0769F5E0916200EB7F6F
:1011F200E0936200E0916200EE7FE0936200E09192
:101202006200EF7BE0936200E0916200ED7FE09389
:101212006200E0916200E77FE0936200E091620089
:10122200EF7DE0936200E0916200EF77E09362006D
:10123200D898D998DB98DC98DD98DE98DF98AE983C
:10124200AF9867C2E530A0E0FA0761F5E09162006D
:10125200EB7FE0936200E0916200EE7FE093620038
:10126200E0916200EF7BE0936200E0916200ED7F2B
:10127200E0936200E0916200E77FE0936200E09118
:101282006200EF7DE0936200E0916200EF77E0930D
:101292006200D898D998DB98DC98DD98DE98DF98C0
:1012A200AE9836C2E630A0E0FA0759F5E091620046
:1012B200EB7FE0936200E0916200EE7FE0936200D8
:1012C200E0916200EF7BE0936200E0916200ED7FCB
:1012D200E0936200E0916200E77FE0936200E091B8
:1012E2006200EF7DE0936200E0916200EF77E093AD
:1012F2006200D898D998DB98DC98DD98DE98DF9860
:1013020006C2E730A0E0FA0751F5E0916200EB7FF8
:10131200E0936200E0916200EE7FE0936200E09170
:101322006200EF7BE0936200E0916200ED7FE09368
:101332006200E0916200E77FE0936200E091620068
:10134200EF7DE0936200E0916200EF77E09362004C
:10135200D898D998DB98DC98DD98DE98D7C1E83028
:10136200A0E0FA0749F5E0916200EB7FE0936200AA
:10137200E0916200EE7FE0936200E0916200EF7B19
:10138200E0936200E0916200ED7FE0936200E09101
:101392006200E77FE0936200E0916200EF7DE093FC
:1013A2006200E0916200EF77E0936200D898D998EA
:1013B200DB98DC98DD98A9C1E930A0E0FA0741F595
:1013C200E0916200EB7FE0936200E0916200EE7FC9
:1013D200E0936200E0916200EF7BE0936200E091B3
:1013E2006200ED7FE0936200E0916200E77FE093AC
:1013F2006200E0916200EF7DE0936200E0916200A2
:10140200EF77E0936200D898D998DB98DC987CC19A
:10141200EA30A0E0FA0739F5E0916200EB7FE09351
:101422006200E0916200EE7FE0936200E091620070
:10143200EF7BE0936200E0916200ED7FE093620057
:10144200E0916200E77FE0936200E0916200EF7D4D
:10145200E0936200E0916200EF77E0936200D89837
:10146200D998DB9850C1EB30A0E0FA0731F5E09152
:101472006200EB7FE0936200E0916200EE7FE09316
:101482006200E0916200EF7BE0936200E091620013
:10149200ED7FE0936200E0916200E77FE0936200FB
:1014A200E0916200EF7DE0936200E0916200EF77ED
:1014B200E0936200D898D99825C1EC30A0E0FA07F1
:1014C20029F5E0916200EB7FE0936200E091620017
:1014D200EE7FE0936200E0916200EF7BE0936200B6
:1014E200E0916200ED7FE0936200E0916200E77FAD
:1014F200E0936200E0916200EF7DE0936200E09190
:101502006200EF77E0936200D898FBC0ED30A0E074
:10151200FA0711F5E0916200EB7FE0936200E0913F
:101522006200EE7FE0936200E0916200EF7BE09365
:101532006200E0916200ED7FE0936200E091620060
:10154200E77FE0936200E0916200EF7DE09362004A
:10155200E0916200EF77D2C0EE30A0E0FA07E9F442
:10156200E0916200EB7FE0936200E0916200EE7F27
:10157200E0936200E0916200EF7BE0936200E09111
:101582006200ED7FE0936200E0916200E77FE0930A
:101592006200E0916200EF7DACC0EF30A0E0FA079C
:1015A200C1F4E0916200EB7FE0936200E09162009F
:1015B200EE7FE0936200E0916200EF7BE0936200D5
:1015C200E0916200ED7FE0936200E0916200E77FCC
:1015D2008BC0E031A0E0FA0799F4E0916200EB7F62
:1015E200E0936200E0916200EE7FE0936200E0919E
:1015F2006200EF7BE0936200E0916200ED7F6FC0DA
:10160200E131A0E0FA0771F4E0916200EB7FE09330
:101612006200E0916200EE7FE0936200E09162007E
:10162200EF7B58C0E231A0E0FA0749F4E091620092
:10163200EB7FE0936200E0916200EE7F46C0E3310F
:10164200A0E0FA0721F4E0916200EB7F39C0E431B7
:10165200A0E0FA0791F1EE31A0E0FA0771F5E0910E
:101662006200EB7FE0936200E0916200EE7FE09324
:101672006200E0916200EF7BE0936200E091620021
:10168200ED7FE0936200E0916200E77FE093620009
:10169200E0916200EF7DE0936200E0916200EF77FB
:1016A200E0936200D898D998DB98DC98DD98DE98B0
:1016B200DF98AE98AF98AC982DC0E0916200E460DC
:1016C200E0936200E0916200E160E0936200E091E9
:1016D2006200E064E0936200E0916200E260E09305
:1016E2006200E0916200E860E0936200E0916200D3
:1016F200E062E0936200E0916200E068E0936200E1
:10170200D89AD99ADB9ADC9ADD9ADE9ADF9AAE9A57
:10171200AF9AAC9AAB98AA98A99821960895AA93E1
:10172200BA93EA93FA93EFB7EA93E0E0E0938B007F
:10173200E4E0E0938A00E1E8E0938900EBE0E093E3
:101742008800E4E0E0937D00A1EAB5E0ED91FD912F
:101752003196FE93EE93E991EFBFF991E991B99138
:10176200A9911895AA93BA93EA93FA93EFB7EA93D9
:10177200E5E0E5BDE0E0E4BDE3BDE7B7E064E7BF77
:10178200AFEAB5E0ED91FD913196FE93EE93A09113
:10179200AF05B091B005519729F4E0E0E093AF05B1
:1017A200E093B005A0916200E091B305E071EA2BED
:1017B200E0936200A091AF05B091B005199760F077
:1017C200A091B305B091B405119731F4A091B90578
:1017D200B091BA05119709F005C0E0916200E0618D
:1017E200E0936200A091AF05B091B005199730F077
:1017F200A091BB05B091BC05119709F001C0DA9A1E
:10180200A091AF05B091B005199730F4A091BB0536
:10181200B091BC05119709F001C0DA98A091AF050B
:10182200B091B005199760F4A091B305B091B405D9
:10183200119731F4A091B905B091BA05119709F049
:1018420005C0E0916200EF7EE0936200E991EFBF94
:10185200F991E991B991A9911895E5E0E5BDE0E02A
:10186200E4BDE3BDE7B7E06405C0E0E0E5BDE4BD8B
:10187200E3BDE1E0E7BF0895BA93AA9322970E94DD
:10188200731A689425F8E0916200EF7EE09362009B
:10189200DA9AEBDFE0910605F09107050E942D1A16
:1018A200E295E07FEE0FA0918D05EA2BAE2FE0913D
:1018B200BB05E295E07FEA2B0E2EA0E025FCA1E01D
:1018C200EA2FEE0FEE0FEE0F0E2AE0E025FCE1E02C
:1018D200A091BB05EA2BEE0FEE0F0E2AE091B9059F
:1018E200F091BA050E942D1AEE0FA091B305EA23DA
:1018F2000E2AE091B905F091BA050E942D1AEA2349
:10190200A091B905EA2BE029E0939A05A0E8BCE092
:101912000E944418A885B985119741F420E030E06F
:1019220043E150E0E0E2F0E0EE83FF83E885F985F1
:10193200309741F423E130E046E250E0EDE2F0E09E
:10194200EE83FF8389010417150708F086C0E89427
:1019520022F821F8E0E0E0939505E0939605E09304
:101962000A05E0930B05E0930C05E0930D05E09367
:101972000E05E0930F05E0931005E0931105E09347
:101982001205E0931305EFEFFFEFE0939B05F09351
:101992009C05A1E00E940618A4E00E940618A0E09F
:1019A2000E940618AE81A00F0E940618A0E00E94B5
:1019B2000618A1E00E9406180E942718E0E0F0E055
:1019C200FDBDECBDE3E0EEBDE6B7E2FFFDCFE0E03A
:1019D200EEBDE6B7E6BF0E945717E130D9F4E0E06A
:1019E200E0930005E0930105A0919605A73089F4E4
:1019F200B0910D05A0E0E0910E05F0E0EA0FFB1FAB
:101A0200E0930005F0930105E0E0E0930605E09322
:101A1200070506C0E1E0F0E0E0930605F093070554
:101A22007894A2E0A09FF001A19FF00DEB5FFB4F25
:101A3200FA93EA93A0910D05E6DAA2E0A09FF001E5
:101A4200A19FF00DEA5FFB4FFA93EA93A0910E0576
:101A5200DADAF8940F5F1F4F76CFE89425F8DA9818
:101A6200E091B305F091B405309729F0E09162005E
:101A7200E061E0936200F1DE0E947A1A2A960895EC
:101A82000E94731A20E030E040E650E0689425F8A6
:101A920089010331E0E01E0708F077C0E09162009F
:101AA200EF7EE0936200DA9AE0DEE89422F821F811
:101AB200E0E0E0939505E0939605E0930A05E09354
:101AC2000B05E0930C05E0930D05E0930E05E09302
:101AD2000F05E0931005E0931105E0931205E093E2
:101AE2001305EFEFFFEFE0939B05F0939C05A1E058
:101AF2000E940618A4E00E940618A0E00E940618A0
:101B0200A42FA00F0E940618A0E00E940618A1E0D0
:101B12000E9406180E942718E0E0F0E0FDBDECBD2F
:101B2200E3E0EEBDE6B7E2FFFDCFE0E0EEBDE6B7F3
:101B3200E6BF0E945717E130B1F4E0E0E093000500
:101B4200E0930105A0919605A73061F4A0910D05DF
:101B5200E0910E05EA2BE093AB05E0E0E093060589
:101B6200E093070506C0E1E0F0E0E0930605F0939C
:101B720007057894E5E0F6E0FA93EA93A091AB05C5
:101B820042DAF8940F5F1F4F84CFE89425F8DA9871
:101B9200E091B305F091B405309729F0E09162002D
:101BA200E061E093620059DE0E947A1A2696089557
:101BB2001A930A93E89422F821F8E0E0E09395055D
:101BC200E093960535F834F8E0934408E09345082D
:101BD200EFEFFFEFE0939B05F0939C05A1E00E94DD
:101BE2000618ACEC0E940618A091B5050E940618D2
:101BF200A091B5050E940618BFC01A930A93E894F3
:101C020022F821F8E0E0E0939505E093960535F897
:101C120034F8E0934408E0934508EFEFFFEFE093D8
:101C22009B05F0939C05A1E00E940618ABEC0E9474
:101C32000618E0919205AE2F0E940618A091910518
:101C42000E9406180E942718E0E0F0E0FDBDECBDFE
:101C5200E3E0EEBDE6B7E2FFFDCFE0E0EEBDE6B7C2
:101C6200E6BF8CC01A930A93E89422F821F8E0E0C8
:101C7200E0939505E093960535F834F8E09344082F
:101C8200E0934508EFEFFFEFE0939B05F0939C058F
:101C9200A1E00E940618AFEC0E940618E09194059C
:101CA200AE2F0E940618A09193050E9406180E946A
:101CB2002718E0E0F0E0FDBDECBDE3E0EEBDE6B7E5
:101CC200E2FFFDCFE0E0EEBDE6B7E6BF57C01A93F4
:101CD2000A93E89422F821F8E0E0E0939505E09376
:101CE200960535F834F8E0934408E0934508EFEFA1
:101CF200FFEFE0939B05F0939C05A1E00E9406187C
:101D0200ADEC0E94061800E010E00C34E0E01E0783
:101D120058F4D801AB5FBB4F0E941108AE2F0E944E
:101D220006180F5F1F4FF1CF27C01A930A93E8944A
:101D320022F821F8E0E0E0939505E0939605EFEFB5
:101D4200FFEFE0939B05F0939C05A1E00E9406182B
:101D5200AEEC0E94061800E010E00331E0E01E073E
:101D620058F4D801AB5FB94F0E941108AE2F0E9400
:101D720006180F5F1F4FF1CF0E9427180991199182
:101D82000895BA93AA931A930A93AA81BB81AA359A
:101D9200E0E0BE0714F001E010E0AA81BB81EAE0B6
:101DA200F0E00E94271A0E2EEAE5F0E00E94211AC6
:101DB200E02159F0E3E6F0E0EA1BFB0BDF01EAE089
:101DC200F0E00E94451A31968F01AA81BB81EAE0B8
:101DD200F0E00E94151A0E2EE0E0F0E00E941B1ABD
:101DE200E02111F00AE010E0AA81BB81E0E0F0E01E
:101DF2000E94211A0E2EE6EAFFEF0E94271AE02126
:101E020059F0E4E6F0E0EA1BFB0BDF01EAE0F0E068
:101E12000E94451A31968F01AA81BB81E6EAFFEF43
:101E2200EA17FB0714F004E110E0F80119810881B8
:101E320024960895BA93AA93A091B705B091B805D4
:101E4200DE97B1F4E1E0F6E0FA93EA93A0919F0500
:101E52000E940408E2E0F6E0FA93EA93A091B50545
:101E62000E940408A5DEE0E0E093B705E093B80520
:101E7200A091B705B091B805DF9769F4E0E0F6E00C
:101E8200FA93EA93A0918F050E940408E0E0E093A0
:101E9200B705E093B805A091B705B091B805A03495
:101EA200E0E0BE07B9F4E3E0F6E0FA93EA93E091EA
:101EB2009205AE2F0E940408E4E0F6E0FA93EA935A
:101EC200A09191050E94040898DEE0E0E093B70536
:101ED200E093B805A091B705B091B805A134E0E050
:101EE200BE07B9F4E6E0F6E0FA93EA93E0919405CE
:101EF200AE2F0E940408E7E0F6E0FA93EA93A0917D
:101F020093050E940408AEDEE0E0E093B705E0939B
:101F1200B805E89423F8239608952897E0E0ED8326
:101F220000E010E021E030E0EFEFEABBE0E0EBBBE5
:101F3200EFEDE4BBE0E2E5BBE8E1E1BBE0E8E2BBF8
:101F4200EFEFE0936100E0E0E0936200E093640071
:101F5200E0936500EBB9E8EDEAB9E6E0E0939500BD
:101F6200E0E0E0939000EFE2E9B9E0E0E0939B006B
:101F7200E8EDE0939A00E6E0E0939D00E0E0E09374
:101F82009800EFE2E0939900A09AE0E8E8B9E0E077
:101F9200E0BDE0BFE2E0E3BFE0E0E2BFE1BFE7E3D4
:101FA200E7BBE1E3E8BBEEEDEDB9E0E0EEB9EEB19F
:101FB200EFB1E0E0E093C307E093C407E093C50705
:101FC200E093C607E093C707E093C807E093C90709
:101FD200E093CA07E093CB07E093CC07E093CD07E9
:101FE200E1E0E7BFE89422F821F8E0E0E09395050C
:101FF200E093960535F834F8E0934408E0934508F9
:10200200DC9ADD9ADE9ADF9AAE9AAF9AAC9AAB9AD4
:10201200AA9AA99AA4EFB1E00E944418E091620042
:10202200E061E0936200DA9AE0916200E460E0939A
:102032006200E0916200E160E0936200E091620080
:10204200E064E0936200E0916200E260E09362008B
:10205200E0916200E860E0936200E0916200E06279
:10206200E0936200E0916200E068E0936200D89A37
:10207200D99ADB9ADC98DD98DE98DF98AE98AF9813
:10208200AC98AB98AA98A998A4EFB1E00E94441822
:10209200E0916200EF7EE0936200DA98E0916200E4
:1020A200EB7FE0936200E0916200EE7FE0936200DA
:1020B200E0916200EF7BE0936200E0916200ED7FCD
:1020C200E0936200E0916200E77FE0936200E091BA
:1020D2006200EF7DE0936200E0916200EF77E093AF
:1020E2006200D898D998DB98DC98DD98DE98DF9862
:1020F200AE98AF98AC98AB98AA98A9987894AFEF9D
:10210200B4E00E941108E0938B05A1E0B6E00E94C2
:102112001108EF3F49F0A1E0B6E00E941108F0E09B
:10212200E0939F05F093A005A2E0B6E00E9411089B
:10213200EF3F49F0A2E0B6E00E941108F0E0E09320
:10214200B505F093B605A0E0B6E00E941108EF3F96
:1021520049F0A0E0B6E00E941108F0E0E0938F059C
:10216200F0939005A3E0B6E00E941108AFEF0E9441
:10217200041AEF93A4E0B6E00E941108AFEF0E94A8
:10218200041AAF91EA23C9F0A3E0B6E00E94110855
:10219200FE2FE0E0E0939105F0939205A4E0B6E013
:1021A2000E941108F0E0A0919105B0919205EA0F0A
:1021B200FB1FE0939105F0939205A6E0B6E00E9422
:1021C2001108AFEF0E94041AEF93A7E0B6E00E9455
:1021D2001108AFEF0E94041AAF91EA23C9F0A6E0FA
:1021E200B6E00E941108FE2FE0E0E0939305F09321
:1021F2009405A7E0B6E00E941108F0E0A0919305D3
:10220200B0919405EA0FFB1FE0939305F0939405B8
:10221200A0919F05B091A005E0E0F0E00E940F1AA6
:102222000E2EA091BB05B091BC05E0E0F0E00E944B
:10223200091AE02179F0E0E0E0938B00E4E0E0931A
:102242008A00E1E8E0938900EBE0E0938800E4E0B3
:10225200E0937D00ADDCE0E0F0E0FDBDECBDE3E04D
:10226200EEBDE6B7E2FFFDCFE0E0EEBDE6B7E6BFCA
:10227200E89422F821F8E0E0E0939505E0939605D2
:10228200E0930A05E0930B05E0930C05E0930D053E
:10229200E0930E05E0930F05E0931005E09311051E
:1022A200E0931205E0931305A8DCE89422F821F8E4
:1022B200E0E0E0939505E0939605E0930A05E0934C
:1022C2000B05E0930C05E0930D05E0930E05E093FA
:1022D2000F05E0931005E0931105E0931205E093DA
:1022E2001305E0E0F0E0FDBDECBDE3E0EEBDE6B7D6
:1022F200E2FFFDCFE0E0EEBDE6B7E6BFB3DCE0E033
:10230200F0E0FDBDECBDE3E0EEBDE6B7E2FFFDCFE0
:10231200E0E0EEBDE6B7E6BF88249924AA24BB24F8
:10232200A0918B05A13009F0A1C0A0E0B4E00E9409
:102332001108AFEF0E94041AEF93A1E0B4E00E94EB
:102342001108AFEF0E94041AAF91EA2391F0A0E0C6
:10235200B4E00E941108FE2FE0E0FF93EF93A1E0AA
:10236200B4E00E941108F0E0AF91BF91EA0FFB1FA9
:102372004F01A2E0B4E00E941108AFEF0E94041ADC
:10238200EF93A3E0B4E00E941108AFEF0E94041A99
:10239200AF91EA2391F0A2E0B4E00E941108FE2F6F
:1023A200E0E0FF93EF93A3E0B4E00E941108F0E0B5
:1023B200AF91BF91EA0FFB1F5F01A4E0B4E00E945E
:1023C2001108CE2EDD24EFEFF0E0EC15FD0591F1C2
:1023D200E8E2F0E0EC15FD0508F1E1E0F0E0E09361
:1023E200B305F093B405E4E1F0E0EC15FD0548F027
:1023F200E1E0F0E0E093B905F093BA050E942E0CFB
:102402000CC0E0916200E061E0936200E0E0E093E2
:10241200B905E093BA050E94360C0CC0E0E0E093E7
:10242200B305E093B405E0916200EF7EE0936200B1
:102432000E94360C7ADCE0E0F0E0FDBDECBDE3E0AA
:10244200EEBDE6B7E2FFFDCFE0E0EEBDE6B7E6BFE8
:102452003EDCE0E0F0E0FDBDECBDE3E0EEBDE6B762
:10246200E2FFFDCFE0E0EEBDE6B7E6BFA091A50535
:10247200B091A6051197D1F4AEE10E941D08E0E0EB
:10248200F0E0FA93EA93AFEF0E940408E1E0F0E093
:10249200FA93EA93AFEF0E940408E8E1E1BDE8E0B5
:1024A200E1BDF894A8EBBBE00E944418E091060558
:1024B200F09107050E942D1AE295E07FEE0FA091A0
:1024C2008D05EA2BAE2FE091BB05E295E07FEA2B6A
:1024D2000E2EA0E025FCA1E0EA2FEE0FEE0FEE0F8C
:1024E2000E2AE0E025FCE1E0A091BB05EA2BEE0F0D
:1024F200EE0F0E2AE091B905F091BA050E942D1A4D
:10250200EE0FA091B305EA230E2AE091B905F091EE
:10251200BA050E942D1AEA23A091B905EA2BE029F7
:10252200E0939A05E091BB05F091BC05A091B90535
:10253200B091BA05EA2BFB2B309719F00E942E0CB2
:1025420002C00E94360CE0910605F0910705309713
:1025520081F0A99B02C0A99801C0A99AAA9B02C0B6
:10256200AA9801C0AA9AAB9B02C0AB9801C0AB9AD1
:102572001BC0A0E0A999A1E0E1E0EA2311F4A99827
:1025820001C0A99AA0E0AA99A1E0E1E0EA2311F42E
:10259200AA9801C0AA9AA0E0AB99A1E0E1E0EA23DF
:1025A20011F4AB9801C0AB9AA0918D05E0E00E94B6
:1025B200FF19AE2FE0910605F09107050E942D1A32
:1025C200EA2349F1E0916200E17099F0E091620042
:1025D200EF7BE0936200E0916200EE7FE0936200A5
:1025E200E0916200EB7FE0936200A998AA98AB9811
:1025F20012C0E0916200E064E0936200E091620048
:10260200E160E0936200E0916200E460E0936200C6
:10261200A99AAA9AAB9AA091B105B091B2050E946B
:10262200EC0723FE0FC0A091B705B091B805DE9765
:1026320009F4BEDAE0914308EA93A0910405B0914F
:102642000505F8DBE89422F821F8E0E0E09395052F
:10265200E0939605A091B105B091B2050E94EC07F6
:10266200E0E0E0930A05E0930B05E0930C05E093AC
:102672000D05E0930E05E0930F05E0931005E0933E
:102682001105E0931205E0931305EFEFFFEFE093DE
:102692009B05F0939C05A1E0B8D4A4E0B6D4A0E0D9
:1026A200B4D4A6E8B2D4A0E0B0D4A1E0AED4CED4E3
:1026B200A091B105B091B2050E94EC07E0E0F0E014
:1026C200FDBDECBDE3E0EEBDE6B7E2FFFDCFE0E02D
:1026D200EEBDE6B7E6BFA091B105B091B2050E948A
:1026E200EC07E4D3E13009F07AC066247724A091A4
:1026F2009605A73049F4B0910D05A0E0E0910E05D2
:10270200F0E0EA2BFB2B3F01ADEBB5E00E945C1A37
:10271200EF5FFF4F6F4F7F4F0E94611AE0E0E0933F
:102722000605E0930705E0930805E0930905E091AB
:10273200A705F091A8050E94FA190E94B4187F9388
:102742006F93FF93EF93E091BD05F091BE05609109
:10275200BF057091C0050E94B418DF01CB01E0E013
:10276200F0E060E87FE30E94661A0E94E718DF014A
:10277200CB01E091BD05F091BE056091BF0570915E
:10278200C0050E94B4180E948C19AF91BF918F911D
:102792009F910E943E197F936F93FF93EF93F301F2
:1027A2000E94FA190E94B418DF01CB01E091BD0525
:1027B200F091BE056091BF057091C0050E94B418EA
:1027C2000E948C19AF91BF918F919F910E94EE1838
:1027D200A7EAB5E00E947D18ED93FC9313C0A8E030
:1027E200B5E0ED91FD913196FE93EE93A09108052F
:1027F200B0910905149734F0E1E0F0E0E0930605AA
:10280200F0930705A091B105B091B2050E94EC07C3
:10281200E89422F821F8E0E0E0939505E09396052C
:10282200E0930A05E0930B05E0930C05E0930D0598
:10283200E0930E05E0930F05E0931005E093110578
:10284200E0931205E0931305EFEFFFEFE0939B0592
:10285200F0939C05A1E0D9D3A4E0D7D3A0E0D5D3CF
:10286200A8E8D3D3A0E0D1D3A1E0CFD3EFD3A091F6
:10287200B105B091B2050E94EC07E0E0F0E0FDBDC9
:10288200ECBDE3E0EEBDE6B7E2FFFDCFE0E0EEBD7A
:10289200E6B7E6BFA091B105B091B2050E94EC0780
:1028A20005D3E0919F05F091A005A091A105B091FB
:1028B200A2050E941B1A0E2EA0919F05B091A005A1
:1028C200E0E0F0E00E940F1AE021AE2FE091060551
:1028D200F09107050E942D1AEA2309F4E2C0F401DF
:1028E200662777270E94B4187F936F93FF93EF9325
:1028F200F401EA19FB09662777270E94B418DF0161
:10290200CB01E091A705F091A8050E94FA190E9457
:10291200B4180E943E19DF01CB01E0E0F0E068EC60
:1029220072E40E948C19AF91BF918F919F910E9486
:10293200661A0E94E718A2E0B5E00E947B18ED93A8
:10294200FC93E0919305F0919405A0910205B0915A
:102952000305AE17BF0710F4E0E001C0E0E4E09326
:102962008D05E0E0E093A105E093A205ED83E091FF
:10297200A705F091A805309711F466247724E0E0CA
:10298200E093BD05E093BE05E093BF05E093C0056B
:10299200D301EFE7F0E00E941B1A0E2EE1E8FFEFF1
:1029A2000E94211AE02979F0EFE7F0E06E167F0627
:1029B20014F0E093AE05E1E8FFEF6E167F0614F423
:1029C200E093AE0502C06092AE05AEE10E941D0822
:1029D200E0918D05E030D1F4E0916200E064E09393
:1029E2006200E0916200E160E0936200E0916200C7
:1029F200E460E093620044245524E4E6E093AE05EB
:102A0200E0E0E093B105E093B20546C0E0916200D8
:102A1200EF7BE0936200E0916200EE7FE093620060
:102A2200E0916200EB7FE0936200D3010E94C20E4C
:102A32002F01EEEDEDB9A42D0E941D08A091AE0567
:102A4200AC391CF4E0EDF7E00FC0E091AE05F0E028
:102A5200E7FDFFEFA4E6B0E00E946C1AEA1BFB0B55
:102A62000E94E519E057FE4FE093B105F093B205DD
:102A7200A091B105B091B205A039E1E0BE0730F4F2
:102A8200E0E9F1E0E093B105F093B205A091B10560
:102A9200B091B2050E94EC07E0E0E093A705E09355
:102AA200A805A091A305B091A405119759F4E89443
:102AB20026F89D9827FE02C030FC01C003C0E894AE
:102AC20027F830F89D9904C026FC02C0E1E001C05D
:102AD200E0E0AE2FE091A305F091A405EA2B309738
:102AE20009F4C4C1E0E0E093B305E093B405E093D8
:102AF200B905E093BA05689426F8E093AD0527FC82
:102B020002C030FE01C038C0E0E0E093A305E093CC
:102B1200A40520E030E0E1E0F0E0E093BB05F093B3
:102B2200BC05689427F8EFEFFFEFE0939B05F09365
:102B32009C05A1E06AD2A6E068D2A0E066D2A1E834
:102B420064D2A0E062D2A1E060D280D2E0E0F0E004
:102B5200FDBDECBDE3E0EEBDE6B7E2FFFDCFE0E098
:102B6200EEBDE6B7E6BFA091BB05B091BC050E94E1
:102B72003D0C0E94410D7AC127FE02C030FE01C009
:102B820075C1E0E0E093A305E093A405E093BB05E3
:102B9200E093BC05689430F8EFEFFFEFE0939B05FC
:102BA200F0939C05A1E031D2A6E02FD2A0E02DD275
:102BB200A2E82BD2A0E029D2A1E027D247D2E0E0BE
:102BC200F0E0FDBDECBDE3E0EEBDE6B7E2FFFDCF18
:102BD200E0E0EEBDE6B7E6BFE89422F821F8E0E0D7
:102BE200E0939505E0939605E0930B05E0930C05C1
:102BF200E0930D05E0930E05E0930F05E0931005B9
:102C0200E0931105E0931205E0931305EFEFFFEF58
:102C1200E0939B05F0939C05A1E0F7D1A4E0F5D1E8
:102C2200A0E0F3D1A7E8F1D1A0E0EFD1A1E0EDD18E
:102C32000DD2E0E0F0E0FDBDECBDE3E0EEBDE6B7B5
:102C4200E2FFFDCFE0E0EEBDE6B7E6BF2FD1E13017
:102C5200A9F4CC24DD24A0919605A73049F4B091C3
:102C62000D05A0E0E0910E05F0E0EA0FFB1F6F01F9
:102C7200E0E0E0930605E093070506C0E1E0F0E03E
:102C8200E0930605F0930705E89422F821F8E0E0C6
:102C9200E0939505E0939605E0930A05E0930B0512
:102CA200E0930C05E0930D05E0930E05E0930F050C
:102CB200E0931005E0931105E0931205E0931305EC
:102CC200EFEFFFEFE0939B05F0939C05A1E09DD110
:102CD200A4E09BD1A0E099D1A3E897D1A0E095D13F
:102CE200A1E093D1B3D1E0E0F0E0FDBDECBDE3E0C3
:102CF200EEBDE6B7E2FFFDCFE0E0EEBDE6B7E6BF30
:102D0200D5D0E13069F4A0919605A73049F4B0918D
:102D12000D05A0E0E0910E05F0E0EA2BFB2B4F0140
:102D2200E89422F821F8E0E0E0939505E093960517
:102D3200E0930A05E0930B05E0930C05E0930D0583
:102D4200E0930E05E0930F05E0931005E093110563
:102D5200E0931205E0931305EFEFFFEFE0939B057D
:102D6200F0939C05A1E051D1A4E04FD1A0E04DD158
:102D7200A4E84BD1A0E049D1A1E047D167D1E0E07E
:102D8200F0E0FDBDECBDE3E0EEBDE6B7E2FFFDCF56
:102D9200E0E0EEBDE6B7E6BF89D0E13069F4A0918C
:102DA2009605A73049F4B0910D05A0E0E0910E051B
:102DB200F0E0EA2BFB2B5F01E4E0F4E0FA93EA9304
:102DC200AC2D0E940408E0E0F4E0FA93EA93A92D06
:102DD2000E940408E1E0F4E0FA93EA93A82D0E942D
:102DE2000408E2E0F4E0FA93EA93AB2D0E940408AF
:102DF200E3E0F4E0FA93EA93AA2D0E940408E8E2E1
:102E0200F0E0EC15FD05C0F0E1E0F0E0E093B30581
:102E1200F093B405E4E1F0E0EC15FD0538F0E1E0F3
:102E2200F0E0E093B905F093BA0505C0E0E0E09365
:102E3200B905E093BA0505C0E0E0E093B305E0937D
:102E4200B405E1E0E0938B05A091BB05B091BC0510
:102E52000E943D0C0E94410D0E94D90DEFEFF4E05B
:102E6200FA93EA93A0918B050E9404089D9B14C0DB
:102E7200A091AD05AF5FA093AD05A23068F0E894D4
:102E820026F8E0E0E093AD0527FE02C030FC01C069
:102E920003C0E89427F830F8E89422F821F8E0E03B
:102EA200E0939505E0939605E1CAFFCF1A9311E0EE
:102EB200EFEFFFEFE0939B05F0939C05E0E0E093DA
:102EC200AC05E0919505F0E03197A091AC05B0E03A
:102ED200AE17BF076CF4E091AC05F0E0E65FFA4F85
:102EE200A0812BD0E091AC05EF5FE093AC05E9CF78
:102EF200E0919505F0E0E65FFA4FA081E0919B0535
:102F0200F0919C050E94F519B0E0EA17FB0709F061
:102F120010E0E0919505F0E03197E65FFA4FA0816D
:102F2200E0919B05F0919C05F070B0E0EA17FB0779
:102F320009F010E0E12F19910895AA931A93E981FB
:102F4200F0E0A0919B05B0919C05EA27FB27E09356
:102F52009B05F0939C0510E0183088F5E0919B05E5
:102F6200E170E1F0E0919B05F0919C05F595E79504
:102F7200E0939B05F0939C05E0919C05EF77E0932D
:102F82009C05A0919B05B0919C05E1E0F0EAEA273F
:102F9200FB27E0939B05F0939C050FC0E0919B05F6
:102FA200F0919C05F595E795E0939B05F0939C05C0
:102FB200E0919C05EF77E0939C051F5FCDCF22C087
:102FC200AA931A93E981A0919805EA271E2FA3ECF0
:102FD200B5E0F0E0EE0FFF1FAE0FBF1F0E94581AC0
:102FE2000E94F519A0919905EA27E0939805E12F2F
:102FF200A3ECB5E0F0E0EE0FFF1FAE0FBF1FEC91A8
:10300200E0939905188122960895AA93A88195DFE5
:10301200A88101D019C0AA93F894E091A905EF5FA5
:10302200E093A905E0914A09F0E0E753F74FA88140
:10303200A083A0914A09AF5FA0934A09A03819F46E
:10304200E0E0E0934A09789421960895A0919B05C7
:10305200E2DFE0919B05F0919C050E94F519AE2FED
:10306200DADF949AE0914909F0E0E753F74FE08103
:10307200E0939C00689420F8EFEFFFEFE0939B054C
:10308200F0939C050895109639F080ED97E0019732
:10309200F1F7A8951197C9F70895552342F45038CE
:1030A20011F4E0FF04C03196691F791F6BF050E8FC
:1030B200572711F45F93CFC05F3F31F0660F000CCA
:1030C20057956795752F08955F9300200AF0CFC03A
:1030D200C8C050E8192E1522880F991F9527550F41
:1030E200879550E8072E0522660F771F7527550F23
:1030F20067950895689401C0E8945F93F2DF703891
:1031020018F07F3F08F4A7C056E1571BAAF4519567
:1031120058300EF4593030F0EFEFFFEF6FEF7FE7EA
:1031220077F91AC077275523B9F0EE0FFF1F661FF4
:10313200771F5A95D1F710C07727583028F0EF2F14
:10314200F62F672F5850F9CF552331F076956795B2
:10315200F795E7955A95D1F700200AF425D15F91AA
:103162000895689401C0E894309760407040B1F0CF
:10317200002426F0772312F4009416D1172E7EE154
:10318200112032F07A95EE0FFF1F661F111CF9CF46
:10319200EF2FF62F612D5F938ADF5F9108954F9392
:1031A200AF01FD01DA01AB01BC01CA01402D012CC6
:1031B200142E4F910895EA0FFB1F681F0895E095A2
:1031C200F0956095EF5FFF4F6F4F08955F9381DF3A
:1031D200903871F150E8152604C05F937ADF903879
:1031E20039F1703821F1572F591B2BF112F4D7DF27
:1031F200FACF583118F0AA27BB278827583028F071
:10320200AB2FB82F88275850F9CF552329F0869530
:10321200B795A7955A95D9F7502D512572F0CBDF66
:1032220038F46795F795E795739513F420C0B7DFE7
:103232003EDF5F910895D8F7FBCFEA1BFB0B680BCB
:1032420051F010F40094BBDF662392F3EE0FFF1FE0
:10325200661F7A95CBF7EE27FF27662777275F91C0
:103262000895EFEFFFEF6FE77FEF5F910895EFEFC4
:10327200FFEF6FE77FE75F9108955F932ADF703872
:1032820051F3903841F301240894791F23F41CF37D
:1032920000203AF3ECCF0F921F932F933F934F935B
:1032A200112722279927689FA0018F9F302D410D5A
:1032B200591F6B9F300D411D591F8E9F27D0BF9FF5
:1032C20025D06A9F23D0BE9F1DD0AF9F1BD0AE9F3B
:1032D200110D291F391F491F591FE32FF42F652F85
:1032E200522F4F913F912F911F910F9066232AF0F9
:1032F200550FEE1FFF1F661F02C073954BF2CDDE06
:103302005F910895100D211D391F02C0200D311D3E
:10331200491F591F08955F93DCDE703821F4112094
:103322000AF49FCFA4CF903809F495CF01240894D2
:10333200970B1BF4D4F30020F3CF792F1F932F9315
:103342003F934F93112411272227332744275527D0
:1033520090E2AE17BF078607410730F0AE1BBF0BE6
:10336200860B410B089401C08894551F221F331FFE
:10337200111CAA1FBB1F881F441F9A9551F7F90100
:10338200612D4F913F912F911F91662332F0550F7E
:10339200EE1FFF1F661F7A9543F27FDE5F9108954D
:1033A200F195E195F0400895F09560957095E1955D
:1033B200FF4F6F4F7F4F0895EE230E2EEA2F19F025
:1033C200E6950A94E9F70895EE0FFF1FEE0FFF1F2F
:1033D200EE0FFF1F0895F595E795F595E795F5959D
:1033E200E795F595E7950895EF2FFF27E7FDFFEFA6
:1033F20008956F2F660F660B762F0895EA17E1E0A6
:1034020009F0EE270895EA17E1E009F4EE2708959E
:10341200EA17FB07E1E009F0EE270895EA17FB0738
:10342200E1E009F4EE270895EA17FB07E1E00CF466
:10343200EE270895AE17BF07E1E00CF4EE270895DA
:10344200AE17BF07E1E00CF0EE270895EA17FB077D
:10345200E1E00CF0EE270895EF2BE1E009F0E0E067
:1034620008950024112490E1AA0FBB1F001C111C17
:103472000E1A1F0A18F40E0E1F1E01C0A1609A95A3
:1034820099F7FD01D001089504D0EBDF0EF488DF37
:103492000895E894F7FF02C083DF6894B7FF06C07F
:1034A200A095B095119600F8039400FA0895ED9155
:1034B200FC9111970895ED91FD916D917D91089583
:1034C2007E936E93FE93EE930895182E862F612DB0
:1034D200192E972F712D1B2EBF2FF12D1A2EAE2FC5
:1034E200E12D08955A934A933A932A931A930A9391
:1034F20008955D814C813B812A811981088108955B
:00000001FF
